:020000040800F2
:1000000050070020010100083D2000086914000885
:10001000F51A0008590A0008B9320008000000006B
:10002000000000000000000000000000BD280008E3
:100030007B0A000800000000F9220008A929000836
:100040001B0100081B0100081B0100081B01000820
:100050001B0100081B0100081B0100081B01000810
:100060001B0100081B0100081B0100081B01000800
:100070001B0100081B0100081B0100081B010008F0
:100080001B0100081B0100081B0100081B010008E0
:100090001B0100081B0100081B0100081B010008D0
:1000A0001B0100081B0100081B0100081B010008C0
:1000B0001B010008452B00081B0100081B0100085C
:1000C0001B0100081B0100081B0100081B010008A0
:1000D0001B0100081B0100081B010008413000083B
:1000E0001B0100081B0100081B010008DFF80CD0F1
:1000F00000F0BEFB00480047913A0008500700207E
:100100000648804706480047FEE7FEE7FEE7FEE7B1
:10011000FEE7FEE7FEE7FEE7FEE7FEE7B929000897
:10012000ED00000840EA01039B0703D009E008C97D
:10013000121F08C0042AFAD203E011F8013B00F8AC
:10014000013B521EF9D27047D2B201E000F8012BF8
:10015000491EFBD270470022F6E710B513460A4647
:1001600004461946FFF7F0FF204610BDF0B480EAC0
:100170000102D40F4200B2EB410F02D20246084600
:1001800011464A0042D0C30DDDB2C1F3C752AD1AC9
:10019000202D35DAC1F3160141F4000204B15242B8
:1001A000C5F1200602FA06F12A411044B3EBD05FF4
:1001B00023D0C4B1012DA0EBC35009DCF0BC4FF03B
:1001C000004202EAC352DBB200F5000000F03EBA82
:1001D000400000F1807000EBC350A0F1807040EA55
:1001E000D170490009E0490841EAC071A0EBC35051
:1001F00000F50000400800EBC350F0BC00F01DBA51
:100200006142012202EB4101001BF6E7F0BC70479E
:1002100081F00041AAE780F00040A7E780EA0102F0
:1002200010B502F00043400022D04A001FD0010E5A
:1002300001EB1261C0F35600C2F3560240F4000015
:1002400042F40002A0FB022000047F39140400D015
:10025000401C50EA124001D44000491EC2B20C06B4
:1002600004EBD010401C4008802A02D003E000209C
:1002700010BD20F00100002900DA0020184310BD55
:1002800030B480EA010202F0004530F0004221F073
:10029000004013D090B1C30DD40DC2F31601C0F3CA
:1002A0001600E41A41F4000140F400027D3491424A
:1002B00001D3641C00E04900002C02DA30BC0020AD
:1002C00070474FF400000023914201D3891A034381
:1002D00040084FEA4101F7D151B1914202D14FF0AC
:1002E000004105E002D24FF0010101E06FF0010191
:1002F00003EBC450284430BC00F09FB92DE9FE4FF9
:10030000804681EA0300C00F0C46009021F00041B6
:1003100023F00045B8EB0200A94105D24046214632
:1003200090461C460B46024623F00040104347D03F
:10033000270DC7F30A00C3F30A510290401A019037
:1003400040286BDAC3F3130040F4801B00989246F8
:1003500020B10023D2EB030A63EB0B0B0198594643
:10036000C0F14002504600F047F906460D4650469F
:100370005946019A00F04FF910EB08006141002442
:1003800087EA115284EAE7731A4340D0009A62B3B5
:10039000019A012A4FEA075215DC001B61EB0201AA
:1003A0004FF0004202EA0752CDE90042001C41F53D
:1003B000801132462B4600F086F903B0BDE8F08F7D
:1003C00040462146F9E7001B61EB0201001C41F5A4
:1003D000801300185B412018A2F5001747EB0301BA
:1003E00040EAD570B6196D4111E06D084FEA360646
:1003F00045EAC0754FEA0752001B61EB0201001C81
:1004000041F5801149084FEA300000195141324648
:100410002B4603B0BDE8F04F00F046B9009801222A
:1004200040000023D0EB020263EBE073009821460A
:100430004FEAE074B8EB000061EB0401E9E783F0F8
:1004400000435BE781F0004158E72DE9FE4F81EA68
:10045000030404F0004421F0004100944FF0000B2D
:1004600023F0004350EA01045ED052EA03045BD05B
:10047000C3F30A54C1F30A552C44A4F2F334019493
:10048000A0FB0254C1F3130141F48011C3F3130321
:1004900043F4801301FB024400FB034E840A970AD5
:1004A00044EA815447EA8357A4FB076802958D0A02
:1004B00005FB07854FEA932C04FB0C542705029D8E
:1004C0004FEA065847EA1637B5EB08056EEB070CFE
:1004D000870E920E47EA811742EA8312A7FB0201B8
:1004E000B6EB0B0164EB00042B0D43EA0C335E18F2
:1004F00044EB1C50DA465146E7FB0201C5F31304F6
:100500004FEA0B3343EA14534FEA0432019C43EAA7
:100510000603A4F10C040294009CCDE900B400F0A1
:10052000D2F803B0BDE8F08F00200146F9E7C10F13
:1005300080EAE0700844CA079623002100F086B8DC
:1005400000F0004220F00040C10DC0F3160040F45E
:1005500000007F2901DA00207047962903DCC1F1F1
:100560009601C84001E096398840002AF4D0404204
:10057000704700F0004230F000400AD0C10D01F594
:100580006071C0F3160042EA0151C20840071143EE
:10059000704700200146704701F0004330B421F05D
:1005A000004150EA010206D00A0DA2F56072C1F3C3
:1005B0001301002A02DC30BC00207047440F44EADB
:1005C000C104C100E01830BC00EBC25000F035B8E7
:1005D000002801DBC0F10040002901DBC1F100412E
:1005E00081427047002801DBC0F10040002901DB97
:1005F000C1F1004188427047202A04DB203A00FA0A
:1006000002F1002070479140C2F1200320FA03F369
:10061000194390407047202A06DBCB17203A41FA55
:1006200002F043EAE07306E041FA02F3D040C2F17F
:10063000200291400843194670470029A8BF70471F
:10064000401C490008BF20F00100704710B4B0FA08
:1006500080FC00FA0CF050EA010404BF10BC7047A3
:1006600049B1CCF1200421FA04F411FA0CF118BFBD
:10067000012121430843A3EB0C01CB1D4FEA00618C
:100680004FEA102042BF002010BC704700EBC3505F
:1006900010440029A4BF10BC7047401C490008BF8B
:1006A00020F0010010BC704710B5141E73F1000457
:1006B00008DA401C41F1000192185B411A4301D154
:1006C00020F0010010BD2DE9F04D92469B4611B17E
:1006D000B1FA81F202E0B0FA80F220329046FFF7E0
:1006E0008BFF04460F4640EA0A0041EA0B015346DD
:1006F0005A46084313D0114653EA010019D0C8F1F5
:100700004002504600F0C6F805460E46504659468F
:100710004246FFF771FF084305D0012004E0204660
:100720003946BDE8F08D0020054346EAE0762C43CB
:1007300037430A986305E40AA0EB08000022FD0A8B
:1007400044EA47540A3002D500200146E9E7010592
:1007500010196941DDE9084500196941BDE8F04D0E
:10076000A2E72DE9F04D81EA030404F0004B21F0EB
:10077000004514464FF0000A23F0004150EA0502FC
:1007800020D054EA01021DD0C5F30A570246C5F332
:100790001303C1F31300C1F30A5640F4801543F468
:1007A0008013A7EB0608101BD64608F2FD3873EB42
:1007B000050002D308F1010801E092185B41B8F18D
:1007C000000F03DA00200146BDE8F08D00204FF451
:1007D0008011064684460EE0171B73EB050705D310
:1007E000121B63EB050306434CEA010C49084FEA70
:1007F000300092185B4150EA0107EDD152EA030044
:1008000012D082EA040083EA0501084305D0101BD8
:10081000AB4106D20122002306E000224FF0004344
:1008200002E06FF0010253101AEB06004CEB085186
:1008300010EB0A0041EB0B01BDE8F04DFFF734BFB0
:1008400070B521F0004303430CD0C1F30A550024D6
:10085000D5EB040564EB0403D617AD1AB34102DBF4
:100860000020014670BD201841EB025170BD000010
:10087000064C074D06E0E06840F0010394E80700ED
:1008800098471034AC42F6D3FFF734FC883E00089A
:10089000A83E0008202A04DB203A21FA02F00021B9
:1008A000704721FA02F3D040C2F120029140084380
:1008B000194670472DE9F04D00231A461B1A8A414C
:1008C00003DB00200146BDE8F08DC1F30A52C1F3FD
:1008D000130141F480154FF0000BD10702D100182D
:1008E0006D41521E0027044640F2FF11384601EBCD
:1008F000620A3E468046024600204FF48011FFF710
:10090000C9FFC2197141BB1846EB0100B4EB030CDF
:1009100075EB000C04D3E41A65EB000517460E4690
:10092000241908F101006D4180463428E3DDF919EE
:1009300046EB0600091BA84103D24FF0FF321346D5
:1009400001E0002213461BEB070046EB0A51BDE80D
:10095000F04DFFF7A9BE10B501F006F803F01EF93F
:1009600001F0ACF801F01EFB02F016FB01F06AFC8E
:1009700002F052F802F0B4F810BD000010B50446C1
:1009800094F9020011281FD008DC012839D0022870
:1009900038D0032853D0102852D108E0122820D094
:1009A00013282BD014282AD0152849D128E026480E
:1009B000007820F00100401C234908701222211DFC
:1009C0002248FFF7AFFB3CE01222211D2048FFF731
:1009D000A9FB1D48007820F00200801C1A4908700D
:1009E0002FE01222211D1B48FFF79CFB16480078C0
:1009F00020F00400001D1449087022E021E020E0EE
:100A00001FE01EE02079212813D004DC012807D044
:100A1000022811D10CE0A0280CD0A1280CD10AE0AA
:100A20000948007820F0400040300749087004E091
:100A300003E002E001E000E000BF00BF01E000E0F1
:100A400000BF00BF10BD000090000020D4020020B5
:100A5000E6020020F802002000BFFEE770B506465F
:100A60000C4615462946204603F062F8A06A30601D
:100A70002946304603F05CF870BD704770B50446F7
:100A800042480078012806D00B280BD01F2817D029
:100A9000FF286FD165E03E48007810B10B203B493C
:100AA00008706BE008213B4803F02CF800203A491D
:100AB00048620860394988601F20344908705DE049
:100AC0003749B1F90600FFF732FD054635480168A0
:100AD0002846FFF7A3FB344948623149B1F90800C1
:100AE000FFF725FD05462F4801682846FFF796FBCE
:100AF0002E4948622A49B1F90A00FFF718FD054658
:100B0000284801682846FFF789FB2949486223489D
:100B100040682849486221480068274948621F48C0
:100B200080681D4948622146234803F001F82248A5
:100B3000806A1D49086021461B4802F0F9FF2146E2
:100B40001C4802F0F5FF1B48806A184908602146DE
:100B5000164802F0EDFF22460F491548FFF77EFFC9
:100B60000CE008210B4802F0CDFF01200749087076
:100B700004E0FFE7FF200549087000BF00BF0448FC
:100B8000007810B9FF200149087070BDCC0000202A
:100B900026000020A400002020020020FC000020ED
:100BA000F0000020883D00081C01002050010020BA
:100BB00084010020B8010020EC0100202DE9F04163
:100BC000024600250026002000230024002791F87B
:100BD00003C00CF00F0591F803C00CF0100CBCF131
:100BE000000F03D091F802C04CEA050591F800C04F
:100BF000BCF1000F31D0146800202BE04FF0010C45
:100C00000CFA00F3B1F800C00CEA03069E4220D1B2
:100C100083004FF00F0C0CFA03F7BC4305FA03FCFA
:100C20004CEA040491F803C0BCF1280F06D14FF040
:100C3000010C0CFA00FCC2F814C00AE091F803C0E1
:100C4000BCF1480F05D14FF0010C0CFA00FCC2F8C2
:100C500010C0401C0828D1D31460B1F800C0BCF10A
:100C6000FF0F34DD546800202EE000F1080C4FF037
:100C7000010808FA0CF3B1F800C00CEA03069E4222
:100C800021D183004FF00F0C0CFA03F7BC4305FA97
:100C900003FC4CEA040491F803C0BCF1280F05D111
:100CA00000F1080C08FA0CF8C2F8148091F803C09F
:100CB000BCF1480F07D100F1080C4FF0010808FA09
:100CC0000CF8C2F81080401C0828CED35460BDE850
:100CD000F08101617047000007B5A4B04FF07C516E
:100CE0002698FFF79BFA1190FE4880680D90FD480A
:100CF00000680C900D99FFF791FA0F90F948C068C1
:100D00000D90F84840680C900D99FFF787FA0E9007
:100D10000F99FFF77DFA4FF080411090FFF77EFAB0
:100D20002090F048C0680D90EE4880680C900D99B6
:100D3000FFF774FA0F90EB4840680D90E94800689F
:100D40000C900D99FFF76AFA0E900F99FFF70EFAC3
:100D50004FF080411090FFF761FA2190E1488068E0
:100D60000C90E04880680B900C99FFF757FA0E90B2
:100D7000DC4840680C90DB4840680B900C99FFF70A
:100D80004DFA0D900E99FFF7F1F94FF080410F9059
:100D9000FFF744FA4FF07E511090FFF73CFA229093
:100DA000D148B0F904000B90FFF7C1FB0D90CE487D
:100DB000B0F904000B90FFF7BAFB0C900D99FFF708
:100DC0002DFA0F90C848B0F902000990FFF7AFFB69
:100DD0000B90C548B0F902000990FFF7A8FB0A90F4
:100DE0000B99FFF71BFA0D90BF48B0F9000009906E
:100DF000FFF79DFB0B90BC48B0F900000990FFF78E
:100E000096FB0A900B99FFF709FA0C900D99FFF7E2
:100E1000ADF90E900F99FFF7A9F9109001F000FBC2
:100E2000B24908602498B0F900000F90FFF77FFBEB
:100E30001090AE4801681098FFF7F0F91D902498C3
:100E4000B0F902000F90FFF772FB1090A7480168FD
:100E50001098FFF7E3F91E902498B0F904000F9062
:100E6000FFF765FB1090A14801681098FFF7D6F9CD
:100E70001F9021980E901F980D900E99FFF7CEF9B4
:100E8000109022980E901E980D900E99FFF7C6F9BB
:100E90000F901099FFF7BCF9179022980E901D98AB
:100EA0000D900E99FFF7BAF9109020980E901F98A8
:100EB0000D900E99FFF7B2F90F901099FFF7A8F96E
:100EC000189020980E901E980D900E99FFF7A6F995
:100ED000109021980E901D980D900E99FFF79EF995
:100EE0000F901099FFF794F9199017980F90804878
:100EF00001680F98FFF792F910907E48006801464C
:100F00000F901098FFF732F97A49086018980F90FF
:100F1000774801680F98FFF781F91090754840688D
:100F200001460F901098FFF721F97249486019980F
:100F30000F906F4801680F98FFF770F910906D4897
:100F4000806801460F901098FFF710F96949886092
:100F5000179801460D9068480068FFF75FF90F90F9
:100F60002498B0F906000C90FFF7E1FA0D90634861
:100F700001680D98FFF752F90E900F99FFF7F6F8F8
:100F800010905C48006801460F901098FFF7EEF84B
:100F90001A90189801460D9057480068FFF73EF9DF
:100FA0000F902498B0F908000C90FFF7C0FA0D904C
:100FB000524801680D98FFF731F90E900F99FFF72D
:100FC000D5F810904B48406801460F901098FFF7F5
:100FD000CDF81B90199801460D9047480068FFF71F
:100FE0001DF90F902498B0F90A000C90FFF79FFAB2
:100FF0000D90424801680D98FFF710F90E900F9977
:10100000FFF7B4F810903B48806801460F901098A5
:10101000FFF7ACF81C901C980D903248C0680C90FB
:101020000D99FFF7FBF80F901B980B902D488068E7
:101030000A900B99FFF7F2F80D902A48406880F06B
:1010400000400B901A9801460A900B98FFF7E6F8BB
:101050000C900D99FFF7DCF80E900F99FFF7D8F878
:1010600010901199FFF7DAF816901C980D901D4812
:1010700080680C900D99FFF7D1F80F901B980B909A
:101080001848C0680A900B99FFF7C8F80D901A9895
:101090000B90144800680A900B99FFF7BFF80C906A
:1010A0000D99FFF7B5F80E900F99FFF75FF81090C4
:1010B0001199FFF7B3F815901C980D9009484068F6
:1010C0000C900D99FFF7AAF80F901B980B9005480C
:1010D00000680A900B99FFF7A1F80D901A980B90F1
:1010E00000480DE0DC000020F0000020D0000020CF
:1010F000D800002044030020D40000208C3D0008CC
:10110000C0680A900B99FFF789F80C900D99FFF7CA
:101110002DF80E900F99FFF77BF810901199FFF7BB
:101120007DF814901C980D90B94800680C900D99AA
:10113000FFF774F80F901B980B90B54840680A9021
:101140000B99FFF76BF80D90B148806880F0004074
:101150000B901A9801460A900B98FFF75FF80C90D5
:101160000D99FFF703F80E900F99FEF7FFFF10900F
:101170001199FFF753F81390A5480068109016993D
:10118000FEF7F4FFA24908600846406810901599E0
:10119000FEF7ECFF9E49486008468068109014995D
:1011A000FEF7E4FF9A4988600846C06810901399DA
:1011B000FEF7DCFF9649C8600846C0680D900846F7
:1011C000C0680C900D99FFF729F80F90904880683F
:1011D0000B908F4880680A900B99FFF71FF80D90CD
:1011E0008B48406809908A48406808900999FFF741
:1011F00015F80B90864800680990854800680890AB
:101200000999FFF70BF80A900B99FEF7AFFF0C90C6
:101210000D99FEF7ABFF0E900F99FEF7A7FF109008
:1012200001F0FEF812907A48006810901299FEF7CB
:10123000F5FF774908600846406810901299FEF75C
:10124000EDFF734948600846806810901299FEF7D8
:10125000E5FF6F4988600846C06810901299FEF754
:10126000DDFF6B49C8602498B0F90A000E90FFF7C3
:101270005EF90F90674801680F98FEF7CFFF109056
:1012800065491098FFF7AEF904D364491098FFF749
:101290009FF90DD226991098FEF7C0FF0F90259860
:1012A000806801460E900F98FEF760FF25998860D0
:1012B0005B480068FFF75DF9CDE90C0154484068D0
:1012C000014603904FF08040FEF7A8FF049050487D
:1012D000C068014603900498FEF7A0FF06904C48B2
:1012E0000068014603904FF08040FEF797FF04909E
:1012F00047488068014603900498FEF78FFF0590E9
:101300000699FEF785FF0790FFF733F9CDE908014D
:1013100002F066F8CDE90A01DDE90C23FFF795F844
:10132000CDE90E01FFF738F9259948603C4800687F
:10133000FFF71FF9CDE90C0135488068014601909F
:101340004FF08040FEF76AFF029031488068014606
:1013500001900298FEF762FF04902D484068014614
:1013600000904FF08040FEF759FF019028484068F8
:10137000014600900198FEF751FF4FF07E51029018
:10138000FEF749FF03900499FEF742FF0590FFF72F
:10139000F0F8CDE908011E480068014601904FF0C1
:1013A0008040FEF73BFF02901948406801460190DB
:1013B0000298FEF733FF04901548806801460190BB
:1013C0004FF08040FEF72AFF02901148C0680146A6
:1013D00001900298FEF722FF03900499FEF7C6FEE3
:1013E0000590FFF7C6F8CDE90601DDE9082302F014
:1013F0003FFACDE90A01DDE90C23FFF726F8CDE934
:101400000E01FFF7C9F82599086027B000BD00005C
:10141000DC000020883D000800004040000040C083
:10142000803D000800BF0E4801684FF0E02082694F
:101430000B4800688142F6D10A48006800EB40037F
:10144000C3EBC010C2EBC000064B1B68B0FBF3F04F
:1014500001EB4103C3EBC11300EBC3007047000075
:101460001C0000201400002000BFFEE708B540204B
:10147000304908600120009004E09DF80000401E03
:10148000C0B200909DF800000028F6D180202949C4
:1014900008600120009004E09DF80000401EC0B2EA
:1014A00000909DF800000028F6D140202149091F36
:1014B00008600120009004E09DF80000401EC0B2CA
:1014C00000909DF800000028F6D10120009004E073
:1014D0009DF80000401EC0B200909DF8000000285A
:1014E000F6D10120009004E09DF80000401EC0B23B
:1014F00000909DF800000028F6D10120009004E043
:101500009DF80000401EC0B200909DF80000002829
:10151000F6D14020074908600120009004E09DF8C2
:101520000000401EC0B200909DF800000028F6D1D7
:1015300008BD0000140C014008B540203049086087
:101540000120009004E09DF80000401EC0B2009011
:101550009DF800000028F6D180202949091F086065
:101560000120009004E09DF80000401EC0B20090F1
:101570009DF800000028F6D140202149091F08608D
:101580000120009004E09DF80000401EC0B20090D1
:101590009DF800000028F6D10120009004E09DF89D
:1015A0000000401EC0B200909DF800000028F6D157
:1015B0000120009004E09DF80000401EC0B20090A1
:1015C0009DF800000028F6D10120009004E09DF86D
:1015D0000000401EC0B200909DF800000028F6D127
:1015E0004020074908600120009004E09DF80000B9
:1015F000401EC0B200909DF800000028F6D108BD42
:10160000140C014008B50821002080222C4B1A60E0
:101610004CE04206100E4022294B1B1D1A6001228D
:10162000009204E09DF80020521ED2B200929DF874
:101630000020002AF6D10122009204E09DF800204B
:10164000521ED2B200929DF80020002AF6D140220C
:101650001B4B1A600122009204E09DF80020521EEC
:10166000D2B200929DF80020002AF6D10122009209
:1016700004E09DF80020521ED2B200929DF8002096
:10168000002AF6D10122009204E09DF80020521EAB
:10169000D2B200929DF80020002AF6D1084A083AFA
:1016A000126802F080020AB140F001000A1EA1F1A6
:1016B0000103D9B2ADD14022014B1B1D1A6008BDF8
:1016C000100C014008B5082150E040222C4B1A6054
:1016D0000122009204E09DF80020521ED2B2009236
:1016E0009DF80020002AF6D100F0800222B180226D
:1016F000234B1B1F1A6002E08022214B1A60420616
:10170000100E0122009204E09DF80020521ED2B279
:1017100000929DF80020002AF6D14022184B1B1F92
:101720001A600122009204E09DF80020521ED2B2FD
:1017300000929DF80020002AF6D10122009204E0D8
:101740009DF80020521ED2B200929DF80020002A7F
:10175000F6D10122009204E09DF80020521ED2B280
:1017600000929DF80020002AF6D100BF0A1EA1F1C8
:101770000103D9B2A9D14022014B1A6008BD000073
:10178000140C014008B58020224908604020086000
:101790000120009004E09DF80000401EC0B20090BF
:1017A0009DF800000028F6D11A480838006808B9EA
:1017B000012000E0002000F0800008B1012008BDF9
:1017C00080201449091D08600120009004E09DF864
:1017D0000000401EC0B200909DF800000028F6D125
:1017E0000C480838006800F0800008B10120E6E7E6
:1017F00040200849091D08600120009004E09DF880
:101800000000401EC0B200909DF800000028F6D1F4
:1018100000BFD4E7100C014008B5402024490860FF
:101820000120009004E09DF80000401EC0B200902E
:101830009DF800000028F6D180201D490860012095
:10184000009004E09DF80000401EC0B200909DF89A
:1018500000000028F6D10120009004E09DF800006F
:10186000401EC0B200909DF800000028F6D1402034
:101870000F49091F08600120009004E09DF8000056
:10188000401EC0B200909DF800000028F6D18020D4
:101890000749091F08600120009004E09DF800003E
:1018A000401EC0B200909DF800000028F6D108BD8F
:1018B000140C014008B540202A490860012000901E
:1018C00004E09DF80000401EC0B200909DF80000AA
:1018D0000028F6D180202349091F086001200090CC
:1018E00004E09DF80000401EC0B200909DF800008A
:1018F0000028F6D140201B49091F086001200090F4
:1019000004E09DF80000401EC0B200909DF8000069
:101910000028F6D10120009004E09DF80000401E50
:10192000C0B200909DF800000028F6D10120009080
:1019300004E09DF80000401EC0B200909DF8000039
:101940000028F6D107480C38006800F0800020B16C
:10195000402004490860012008BD4020014908607A
:101960000020F9E7140C014008B50121082000F01F
:101970008FFDC020ADF8000003208DF80200142078
:101980008DF8030069460248FFF718F908BD00000A
:10199000000C014070B504460D460026FFF7F2FE2C
:1019A000012800D170BD2046FFF78CFEFFF782FFB3
:1019B000012803D1FFF730FF0120F3E72846FFF7A6
:1019C00081FEFFF777FFFFF727FFFFF7DBFE611CC4
:1019D000C8B2FFF777FEFFF76DFF012803D1FFF7CD
:1019E0001BFF0120DEE7FFF70DFE0646FFF7A4FD13
:1019F000FFF712FF70B2D5E770B506460C461546E4
:101A0000FFF7C0FE012800D170BD3046FFF75AFE37
:101A1000FFF750FF012803D1FFF7FEFE0120F3E797
:101A20002046FFF74FFEFFF745FF2846FFF74AFE27
:101A3000FFF740FFFFF7F0FE0020E5E72DE9F0415A
:101A400006460F4615461C46FFF79CFE012801D1AD
:101A5000BDE8F0813046FFF735FEFFF72BFF012888
:101A600003D1FFF7D9FE0120F2E73846FFF72AFE3F
:101A7000FFF720FFFFF7D0FEFFF784FE711CC8B20E
:101A8000FFF720FEFFF716FF012803D1FFF7C4FE82
:101A90000120DDE70CE0FFF7B5FD2870012C02D135
:101AA000FFF74AFD01E0FFF7E1FC6D1C601EC4B2C8
:101AB000002CF0D1FFF7B0FE0020C9E708B54FF0C9
:101AC00000700A4948600121082000F0E1FC40F262
:101AD0000630ADF8000010208DF8030003208DF8CB
:101AE000020069460248FFF769F808BD000001409E
:101AF000000C014000BFFEE72DE9F047994800784F
:101B000010B9FF209849087097480078012806D03E
:101B1000022811D01F2819D0FF287DD1BCE0002059
:101B20009249C8808880488008808E48007810B12B
:101B300002208D49087000BF8D48808840F24C41DA
:101B4000884202DD1F2088490870B0E088498988F2
:101B5000A1F57A70FEF7EBFC06468648816A3046AE
:101B6000FEF704FB0546FEF7EBFC04B280488088D4
:101B700040F21541884206DA00207C49C8808880FE
:101B80004880088093E0002C01DA002006E0B4F5DC
:101B9000617F02DD4FF4617000E020467349C88028
:101BA000888048800880744A916A744A906AFEF777
:101BB0002FFB80467248816A4046FEF729FB0646A5
:101BC0006A49B1F90000FEF7B2FC07463146FEF75C
:101BD000CDFA0546FEF7B4FC00B264490880664AB7
:101BE000916A664A906AFEF7C1FA80466448816A43
:101BF0004046FEF7BBFA06465C49B1F90200FEF723
:101C000096FC07463146FEF7B1FA0546FEF798FC0A
:101C100000B25649488000E048E05848806A80F0A9
:101C200000485548816A4046FEF7A0FA07465448E6
:101C3000816A3846FEF7ECFA06464C49B1F90400D1
:101C4000FEF775FC81463146FEF790FA0546FEF731
:101C500077FC00B2454988804848806A80F0004897
:101C60004548816A4046FEF7D3FA07464448816AF0
:101C70003846FEF77BFA06463C49B1F90600FEF706
:101C800056FC81463146FEF771FA0546FEF758FCD0
:101C900000B23649C8800AE000203449C8808880F4
:101CA0004880088001203049087000E000BF00BF74
:101CB0002E48B0F90000002801DA00200BE02B4884
:101CC000B0F90000B0F57A7F02DD4FF47A7002E0DF
:101CD0002648B0F900004FF0804188862348B0F9CB
:101CE0000200002801DA00200BE02048B0F90200D1
:101CF000B0F57A7F02DD4FF47A7002E01B48B0F94C
:101D000002004FF0804108871848B0F9040000280D
:101D100001DA00200BE01548B0F90400B0F57A7F35
:101D200002DD4FF47A7002E01048B0F904004FF081
:101D3000804188870D48B0F90600002801DA0020AC
:101D40000BE00A48B0F90600B0F57A7F02DD4FF4E7
:101D50007A7002E00548B0F906000A490880BDE83B
:101D6000F087000026000020CD000020C4000020E5
:101D70000801002054020020500100201C01002016
:101D800084010020400000402DE9FE4F06236A46F2
:101D90003B21D020FFF752FE06230DF1060243211E
:101DA000D020FFF74BFE002458E0012000EB440058
:101DB0001DF800001DF8141040EA0120294931F8EF
:101DC0001410401A00B22849096821F81400032CA5
:101DD0001BDA2549096831F91400FEF7A8FB05460E
:101DE00004EB4401214A02EBC100294601F023FE25
:101DF00004EB44011D4A02EBC1018868FEF7A0FB19
:101E000000B21949096821F81400022C24DDE01EF3
:101E1000C5B2DFF85C801449096831F91400FEF797
:101E200086FB82464146FEF7F9F90746114951F80B
:101E300025001149FEF7F2F981463946FEF796F979
:101E40000C4941F825000646FEF77AFB00B2064928
:101E5000096821F8140000BF601CC4B2062CA4DB82
:101E6000BDE8FE8FBC020020440000204800002096
:101E70009A99193EC80200209A99593FF0B58BB043
:101E8000182105A8FEF767F91E25052677420020D0
:101E900003900490404800210160416081604FF44C
:101EA00000503D498880002201213C4800F0BCFEE2
:101EB0003BE000BF0A2001F0ADFDFFF765FF002405
:101EC00016E037480168E01C31F8100003A931F82A
:101ED0001410401A00B201A921F81400304801681A
:101EE000E01C31F8100003A921F81400601C04B2B2
:101EF000032CE6DBBDF904000528DBDCBDF904009A
:101F000010F1050FD6DBBDF906000528D2DCBDF9BE
:101F1000060010F1050FCDDBBDF908000528C9DC6E
:101F2000BDF9080010F1050FC4DB281EA5F1010161
:101F3000CDB2BED1002417E0FFF726FF642C11DBE1
:101F400000200CE005A951F82010154A126832F95A
:101F50001020114405AA42F82010411CC8B20628DE
:101F6000F0DB00BF601C04B2B4F5B27FE4DB0024F8
:101F700009E005A850F82400001200B2064921F833
:101F80001400601C04B2062CF3DB01221146034846
:101F900000F04AFE0BB0F0BDBC020020000400407F
:101FA0004400002010B500244FF40070224908605E
:101FB000401008600220091F08600420086000BF6C
:101FC00080226B21D020FFF717FDC4B21E2001F044
:101FD00021FD02221921D020FFF70EFD2044C4B2BA
:101FE00003226B21D020FFF707FD2044C4B2032257
:101FF0001A21D020FFF700FD2044C4B218221B2173
:10200000D020FFF7F9FC2044C4B209221C21D020C3
:10201000FFF7F2FC2044C4B2002CD1D17521D020AE
:10202000FFF7B8FCC4B2682C01D0012010BDFFF747
:1020300025FF0020FAE70000140C01407047000063
:102040001FB510A103C9CDE90201052202A9302064
:1020500000F0BEF805226946102000F067F8002461
:1020600006E01DF80400A52800D003E0601CC4B2FF
:10207000052CF6DB00BF052C02D0012004B010BDFA
:102080000020FBE7A5A5A5A5A500000008B5012136
:10209000042000F0FDF94FF40060ADF800001020BE
:1020A0008DF8030003208DF8020069461D48FEF7F5
:1020B00085FD0121082000F0EBF94FF48050ADF8C8
:1020C000000010208DF8030003208DF802006946FF
:1020D0001548FEF773FD4FF4006012491031086097
:1020E00040001149103108600011ADF8000048208F
:1020F0008DF8030003208DF8020069460948FEF7B9
:102100005DFD4FF480710748FEF7E3FD00F044FBEE
:102110004FF4006003491431086040000249103157
:10212000086008BD00080140000C01402DE9F041A5
:1021300007460D4616464FF480500C490860384655
:1021400000F0A0FB8046002405E0FF2000F09AFB91
:102150002855601CC4B2B442F7DB4FF480500349E9
:10216000091F08604046BDE8F0810000140C0140E2
:1021700070B504464FF4805007490860204600F0CF
:1021800081FBFF2000F07EFB05464FF480500249A2
:10219000091F0860284670BD140C014070B5044644
:1021A0000720FFF7E5FF05462946272000F032F813
:1021B00005F0400050B1202221466120FFF7B6FF14
:1021C000FF21E22000F026F8002070BD0120FCE78E
:1021D0002DE9F04107460C4615464FF480500C4956
:1021E0000860384600F04EFB8046002605E014F8F3
:1021F000010B00F047FB701CC6B2AE42F7DB4FF498
:1022000080500349091F08604046BDE8F081000086
:10221000140C014070B505460C464FF48050084937
:102220000860284600F02EFB0646204600F02AFBF8
:102230004FF480500249091F0860304670BD00000D
:10224000140C014010B5FFF721FF4FF4007008494E
:102250000860401008600220091D08600420086022
:1022600000BF00F061FAFFF7EBFE0128F9D010BDC6
:10227000100C014070B5002100230F22C47804B374
:10228000154C246804F4E064C4F5E064210AC1F14B
:102290000403CA40447804FA03F1847814402143CB
:1022A00009010E4C0678A155047804F01F0501249D
:1022B000AC4005786D11AD0005F1E025C5F8004191
:1022C00009E0047804F01F050124AC40044D0678B1
:1022D000761145F8264070BD0CED00E000E400E00A
:1022E00080E100E002490143024A116070470000AA
:1022F0000000FA050CED00E070470000444800685B
:1023000044490968401A44490988884200D2704704
:102310003F4800683F4908603F48807806286FD2F0
:10232000DFE800F026030E3243554FF400703B49BE
:10233000086002200860000208600420086063E072
:102340003648001F006880F002003449091F086009
:102350000846006880F4007008600846006880F055
:10236000040008600846006880F4807008604BE054
:102370004FF400702949091D086002200860C0015F
:102380000860042008603FE04FF4007023490860B3
:102390000220091D0860C001091F08600420091DF2
:1023A000086002201C4988702EE002201B49091D8C
:1023B0000860042008601948001F006880F400705D
:1023C0001649091F0860C820134908801CE04FF413
:1023D00000701249091D0860401008600F48001F76
:1023E000006880F002000D49091F08600846006877
:1023F00080F00400086064200749088004E0FFE7DB
:1024000001200549887000BF00BF00BF7FE70000C2
:102410001C000020400000203C000020100C014067
:102420002DE9F05F04464FF07F594FF07C51204674
:10243000FDF7F4FE824625462E460C48A0EB6606C4
:10244000354629465046FDF7E9FE83462946FDF705
:10245000E5FE80464946FDF7DEFE07462946FDF7C4
:10246000DDFE05462846BDE8F09F0000DF59375FD6
:1024700029B1064AD2690243044BDA6104E0034AF7
:10248000D2698243014BDA617047000000100240BC
:1024900029B1064A92690243044B9A6104E0034A57
:1024A00092698243014B9A6170470000001002401C
:1024B00030B500210022002400232D4D6D6805F069
:1024C0000C0121B1042905D0082923D105E0294DAB
:1024D000056022E0274D05601FE0254D6D6805F47D
:1024E0007012234D6D6805F48034022505EB92428D
:1024F0001CB9214D554305600BE01D4D6D6805F479
:1025000000351DB11C4D5543056002E0194D554382
:10251000056002E0174D056000BF00BF144D6D68F7
:1025200005F0F0010909154D6B5C0568DD4045605B
:102530000F4D6D6805F4E061090A104D6B5C45684C
:10254000DD4085600A4D6D6805F46051C90A0B4D88
:102550006B5C4568DD40C560054D6D6805F4404124
:10256000890B074D6B5CC568B5FBF3F5056130BDA4
:102570000010024000127A0000093D0028000020EF
:10258000380000202DE9F0415E48FFF707FE0028E3
:102590007ED100255C490880002405E05948005D93
:1025A0002844C5B2601CC4B21F2CF7DB5548C07F5D
:1025B000A8426ED153480078AA28FAD151484078F1
:1025C000AF28F6D14F4840794E49097940EA0120B9
:1025D0004E4908804B48C0794A49897940EA012030
:1025E0004A4948804748407A4649097A40EA0120EA
:1025F000464988804348C07A4249897A40EA0120A6
:102600004249C8803F48407B3E49097B40EA01205F
:102610003E4908813B48C07B3A49897B40EA01201A
:102620003A4948813748407C3649097C40EA0120D4
:10263000364988813348C07C3249897C40EA012090
:102640003249C8812F48407D2E49097D40EA01204A
:102650002E4908822B48C07D2A49897D40EA012005
:102660002A4948822A4E2B4F498840F2DC52501AA0
:10267000FDF75DFF80463146FDF7D0FD2649086035
:102680002249098840F2DC52501AFDF750FF01E060
:1026900026E024E080463146FDF7C0FD1F49086072
:1026A0001A48C08840F21C71884208DD1C4908683D
:1026B0004FF07D51FDF75AFD194908600DE01348B0
:1026C000C08840F29C41884207DA154908684FF0FB
:1026D0007D51FDF79DFD1249086001F091FA0FE070
:1026E00009480088401C0849088008460088B0F561
:1026F000487F05DD002008800A490870FFF7A2FD29
:10270000BDE8F081230300209A000020080100208A
:102710000AD7233DA69BC43AB8010020EC01002053
:10272000200200202600002010B54FF4006012495E
:102730000860052211492A20FFF74AFD01212120C6
:10274000FFF768FD01212220FFF764FD2D212520E0
:10275000FFF760FD20213120FFF75CFD0F212620CF
:10276000FFF758FD0F212020FFF754FD4FF40060C4
:102770000149091F086010BD14080140753D00089B
:1027800021B1028842F04002028004E002884FF644
:10279000BF731A400280704700B587B001218803DB
:1027A000FFF766FE01210920FFF772FE4FF480510A
:1027B0001C48FEF78EFA4FF46040ADF80400032089
:1027C0008DF8060018208DF8070001A91548FEF7BE
:1027D000F5F900211448FFF7D3FF0020ADF80800F9
:1027E0004FF48270ADF80A000020ADF80C00ADF88F
:1027F0000E00ADF810004FF40070ADF8120010207C
:10280000ADF814000020ADF816000720ADF8180050
:1028100002A9054800F018F801210348FFF7B0FFAE
:1028200007B000BD000C0140003800400246002007
:1028300013890B400BB1012000E0002070470146D6
:10284000888970478181704710B50022028802F4A0
:1028500041520B884C8823438C882343CC882343E4
:102860000C8923434C8923438C892343CC892343FC
:102870001A430280838B4FF2FF74234083830B8AB9
:10288000038210BD10B5044600BF02210A48FFF7BD
:10289000CDFF0028F9D021460748FFF7D3FF00BF3E
:1028A00001210548FFF7C2FF0028F9D00248FFF7D1
:1028B000C6FFC0B210BD000000380040704710B520
:1028C00000F002F810BD00000CB50020019000904F
:1028D0003348006840F480303149086000BF304818
:1028E000006800F4003000900198401C01900098AE
:1028F00018B90198B0F5A06FF1D12948006800F42B
:10290000003010B10120009001E0002000900098FC
:10291000012843D12348006840F010002149086095
:102920000846006820F0030008600846006840F090
:10293000020008601A484068194948600846406823
:1029400048600846406840F4806048600846406837
:1029500020F47C1048600846406840F4E810486065
:102960000846006840F08070086000BF0C480068AE
:1029700000F000700028F9D00948406820F00300FA
:10298000074948600846406840F00200486000BFC0
:102990000348406800F00C000828F9D10CBD000085
:1029A000001002400020024002480068401C01491B
:1029B000086070471C00002010B51348006840F004
:1029C00001001149086008464068104908400E4956
:1029D0004860084600680E4908400B4908600846F0
:1029E000006820F4802008600846406820F4FE005B
:1029F00048604FF41F008860FFF761FF4FF00060F0
:102A00000449086010BD0000001002400000FFF8FB
:102A1000FFFFF6FE08ED00E000B589B001210420BB
:102A2000FFF736FD0F20ADF8040003208DF80600F7
:102A300018208DF8070001A92848FEF7BFF80121EA
:102A40000846FFF715FD40F2E730ADF81C000820FE
:102A5000ADF818000020ADF81E00ADF81A0006A968
:102A60004FF0804000F046FA6020ADF808000120E9
:102A7000ADF80A000020ADF80E00ADF8100002A974
:102A80004FF0804000F0DAF80821C80600F022F983
:102A900002A94FF0804000F027F90821C80600F095
:102AA00075F902A94FF0804000F07EF90821C806B0
:102AB00000F0CAF902A94FF0804000F0CFF90821D8
:102AC000C80600F009FA0121880700F081F8012109
:102AD000880700F08CF809B000BD00000008014034
:102AE0001FB501210220FFF7C3FC1D208DF8000057
:102AF00001208DF8010003208DF8020001208DF8DF
:102B000003006846FFF7B6FB40F22B10ADF8080053
:102B100040F2CF20ADF804000020ADF80A00ADF877
:102B2000060001A9064800F0E5F901221146044813
:102B300000F07AF80121024800F059F81FBD0000AA
:102B40000004004010B50121194800F05CF870B392
:102B500018480068401C1749086017480078401C56
:102B60001549087015480078401C1449087012482F
:102B7000007801280BD100200F490870FFF704F9F5
:102B8000FFF700FD0E48FDF779FFFEF7B5FF0B4894
:102B90000078022807D1002008490870094A0A492C
:102BA0000A48FEF799F80121014800F01DF810BD10
:102BB000000400401C000020180000201900002024
:102BC000A69B443BB020CD3BFC000020F000002041
:102BD00021B1028842F08002028004E002884FF6B0
:102BE0007F731A4002807047CA430282704721B146
:102BF000028842F00102028004E002884FF6FE7370
:102C00001A400280704730B502460020002300249D
:102C1000158A05EA0103958905EA010413B10CB18F
:102C2000012000E0002030BD1AB183890B4383816D
:102C300002E083898B4383817047000070B50024D4
:102C400000220023058C4FF6FE7635400584028C69
:102C50008388048B4FF68F752C40B51E2C400D8851
:102C60002C43751E2A400D892A434D882A43144D52
:102C7000A8420BD0134DA84208D0134DA84205D04E
:102C8000124DA84202D0124DA84213D14FF6F7754B
:102C90002A404D892A434FF6FB752A408D882A43E6
:102CA0004FF6FF652B404FF6FF552B408D892B4388
:102CB000CD892B4383800483CD888586028470BDB3
:102CC000002C01400034014000400140004401401C
:102CD000004801400A460021018B4FF6F773194066
:102CE000114301837047000070B5002400220023C7
:102CF000058C4FF6EF7635400584028C8388048B73
:102D000048F6FF752C404FF6FF452C400D884FF6D6
:102D1000FF7606EA05252C434FF6DF752A400D891C
:102D200006EA05152A434D8806EA05152A43154D7E
:102D3000A84202D0144DA8421DD14FF67F752A40FB
:102D40004D894FF6FF7606EA05152A434FF6BF7503
:102D50002A408D8806EA05152A434FF6FF352B4099
:102D60004FF2FF752B408D8906EA85052B43CD89EF
:102D700006EA85052B4383800483CD88058702847A
:102D800070BD0000002C0140003401400A460021C3
:102D9000018B4FF2FF7319404FF6FF7303EA0223D2
:102DA000194301837047000070B5002400220023FE
:102DB000058C4FF6FF6635400584028C8388848B32
:102DC0004FF68F752C404FF6FC752C400D882C4328
:102DD0004FF6FF552A400D894FF6FF7606EA052586
:102DE0002A434D8806EA05252A43154DA84202D0FC
:102DF000144DA8421DD14FF2FF752A404D894FF660
:102E0000FF7606EA05252A434FF6FF352A408D88CE
:102E100006EA05252A434EF6FF752B404DF6FF7551
:102E20002B408D8906EA05152B43CD8906EA051549
:102E30002B4383808483CD888587028470BD000006
:102E4000002C0140003401400A460021818B4FF6DE
:102E5000F7731940114381837047000070B5002259
:102E600000230024058C4EF6FF7635400584038C44
:102E70008488828B48F6FF752A404FF6FF452A402A
:102E80000D884FF6FF7606EA05252A434DF6FF75B5
:102E90002B400D8906EA05352B434D8806EA05359A
:102EA0002B430B4DA84202D00A4DA84208D14BF645
:102EB000FF752C408D894FF6FF7606EA85152C4369
:102EC00084808283CD88A0F84050038470BD0000C8
:102ED000002C0140003401400A460021818B4FF252
:102EE000FF7319404FF6FF7303EA022319438183EE
:102EF00070470000002202881D4B98420ED01D4BE7
:102F000098420BD0B0F1804F08D01B4B984205D0AF
:102F10001A4B984202D01A4B984204D14FF68F7345
:102F20001A404B881A43174B984207D0164B9842C9
:102F300004D04FF6FF431A40CB881A4302808B8897
:102F400083850B8803850A4B98420BD0094B984226
:102F500008D00E4B984205D00D4B984202D00D4B35
:102F6000984201D10B7A03860123838270470000C7
:102F7000002C0140003401400004004000080040E3
:102F8000000C0040001000400014004000400140D0
:102F9000004401400048014000B587B001212448A9
:102FA000FFF766FA27208DF8040000208DF8050051
:102FB0008DF8060001208DF8070001A8FFF75AF9E7
:102FC0004FF48060ADF8180018208DF81B00032026
:102FD0008DF81A0006A91748FDF7F0FD4FF40060C0
:102FE000ADF8180004208DF81B0006A91148FDF764
:102FF000E5FD114802900020ADF80C00ADF80E0080
:10300000ADF81000ADF814000C20ADF8120002A9C4
:103010000A4800F0E1F8012240F22551074800F08B
:10302000B5F80121054800F0A5F807B000BD000083
:1030300008000400000C014020A1070000480040E7
:1030400070B53C4800883B48008840F22551084054
:1030500000286ED03748001D008840B23649374AF4
:10306000127888543548007810B101281AD10AE046
:10307000314890F90000563020B930480078401CA3
:103080002E49087054E02C4890F90100513028B9BD
:103090002A480078401C2949087002E0002027498E
:1030A000087045E0244890F90300001D2349097881
:1030B000884205DD21480078401C2049087037E02F
:1030C0000025002405E01C48005D284445B2601C32
:1030D000C4B21A4800788442F5DB174817490978CA
:1030E0004056A8421CD114488078154908710846FA
:1030F000457100208871002409E011488079104949
:10310000095D084440B20E498871601CC4B2062CA7
:10311000F3DB07210A4800F015F80748FDF72EFCFD
:1031200000200649087004490870487000BF00BFBD
:1031300000BF70BD004800400A030020920000203C
:103140009300002070B505460E4600240DE000BF38
:103150000748008800F080000028F9D0285781B285
:10316000034800F0A5F8601CC4B2B442EFDB70BDA8
:103170000048004021B1828942F40052828104E07B
:1031800082894DF6FF731A4082817047F0B503467D
:10319000002400260025002040F66A17B94200D11D
:1031A00000BF1846C1F3421401F01F06012707FAB9
:1031B00006F5012C01D10C3004E0022C01D11030B5
:1031C00000E014301AB107682F43076002E0076877
:1031D000AF430760F0BD00002DE9F04786B005461B
:1031E0000E460024A24600BFA1460027B08900B1C8
:1031F00000BF2F462C8A4CF6FF700440F088044331
:103200002C82AC894EF6F3100440B0883189084313
:10321000718908430443AC81AC8A4FF6FF400440F7
:10322000B0890443AC8201A8FFF742F91F488742E6
:1032300002D1DDF810A001E0DDF80CA0A88900F4AF
:10324000004040B10AEBCA0000EB0A1031684900A7
:10325000B0FBF1F807E00AEBCA0000EB0A10316896
:103260008900B0FBF1F86420B8FBF0F004012009FC
:10327000642101FB1089A88900F4004040B132208C
:1032800000EBC900B0FBF1F000F00700044308E0D8
:10329000322000EB09106421B0FBF1F000F00F00C8
:1032A00004432C8106B0BDE8F087000000380140DF
:1032B000C1F308028280704700BFFEE7490050EA70
:1032C000C12018BF04204A0D18BF40F0010040F291
:1032D000FF72B2EB515F08BF40F00200012808BF47
:1032E000052070472DE9F0414F1E00EBC701044651
:1032F000D1E9000115461E4637F006020DD02A46D8
:103300003346FDF7A2F87F1E04EBC703D3E9002381
:10331000FCF7F4FF37F00602F1D1022F25D0042F7D
:1033200013D0062F18BFBDE8F0812A463346FDF7BB
:103330008CF8D4E90A23FCF7E1FF2A463346FDF76F
:1033400084F8D4E90823FCF7D9FF2A463346FDF771
:103350007CF8D4E90623FCF7D1FF2A463346FDF773
:1033600074F8D4E90423FCF7C9FF2A463346FDF775
:103370006CF8D4E90223FCF7C1FF2A463346FDF777
:1033800064F8D4E90023BDE8F041FCF7B7BF01229F
:10339000FDF756BAFCF7B2BF00221346104611469D
:1033A000FDF7DFB9024A00201107FDF749BA000016
:1033B00001FDFFFF02E008C8121F08C1002AFAD170
:1033C00070477047002001E001C1121F002AFBD1A5
:1033D000704700000149086070470000EC000020C1
:1033E0002DE9F04D8D4F21F0004A86B005460C4680
:1033F000BA452ADBAAEB070028430AD08848824551
:1034000001DC1AD1CDB106B02846BDE8F04DFFF77A
:10341000BEBF844A844B2846FDF717F807460E4680
:10342000824A834B28462146FDF70FF806B03A46FC
:103430003346BDE8F04DFCF761BF0120FFF7CAFF3E
:1034400006B0BDE8F04DFFF7A7BF7A48824542DAE3
:10345000BAF1795F0BDA2846FFF730FF042808BF7E
:10346000FFF7A0FF284606B02146BDE8F08D2A46AA
:103470000B461046FCF7E9FF834602466E480E46AF
:103480000B4606217844FFF72DFF5A463346FCF7DA
:10349000DCFF804669488A465A4633460421784410
:1034A000FFF720FF5A463346FCF7CFFF00223B468A
:1034B000FCF724FF02460B4640465146FDF751F902
:1034C0002A462346FCF7C1FF06B02A462346BDE83C
:1034D000F04DFCF713BF284624F0004100223D4682
:1034E0003B46FCF7AFFF4FF0FF32FDF7A9F9064668
:1034F000024653480F460B4606217844FFF7F2FE7A
:1035000032463B46FCF7A1FFCDE900014D4832466B
:103510003B4604217844FFF7E5FE32463B46FCF784
:1035200094FF00222B46FCF7E9FE834602913046C9
:10353000394600F0F7FB804643480D46504517DCFE
:10354000DDE900015A46029BFDF70BF942462B4686
:10355000FCF77BFF42462B46FCF7D0FE0122FDF72D
:103560006FF9304A304BFCF76AFF304A304B4CE081
:103570004FF0000A52460B464046FCF7BFFECDE92D
:10358000031052462B4610461946FCF75EFF3246A2
:103590003B46FCF757FFDDE90332FDF7E2F806464C
:1035A0000F46DDE900015A46029BFDF7DAF8834633
:1035B0000091012230463946FDF742F9194A1A4B6B
:1035C000FCF740FF06460F46012240462946FDF71C
:1035D00037F95A46009BFCF738FF32463B46FCF76A
:1035E0002EFF06460F46012250462946FDF728F9D0
:1035F0000E4DDFF858802A464346FCF723FF32463B
:103600003B46FCF71FFF2A464346FCF71BFF002CF6
:10361000D8BF81F0004106B0BDE8F08D0000F03F5A
:103620000000F07F075C143326A6913C182D44540B
:10363000FB21F93F0000E03F1009000026090000CF
:103640009A080000B00800003333EF3FFB21E93F48
:103650002DE9F84F04460D4621F0004000917349D2
:10366000814211DC7249884201DC06D12CB120462E
:103670002946BDE8F84FFFF78ABE6E48002DCCBF43
:103680006D496E49BDE8F88F6D49814211DD6D4984
:103690008142D8BF4FF0FF366DDD20462946FFF747
:1036A0000DFE042808BFFFF77DFE20462946BDE831
:1036B000F88F6549654F25F00045814233DD644947
:1036C000814219DD002632464FF0804320462946CC
:1036D000FCF714FE80468A46012220462946FDF763
:1036E000AFF800223B46FCF7AAFE42465346FDF7E0
:1036F00038F804460D463EE001260022BA463B4615
:1037000020462946FCF7FAFD80460F460022534624
:1037100020462946FCF793FE42463B46FDF721F83A
:1037200004460D4627E04B4981421BDDDFF828A106
:1037300002260022534620462946FCF786FE002238
:103740003B46FCF7DBFD80460F46002253462046F1
:103750002946FCF774FE42463B46FDF702F8044654
:103760000D4608E0032622462B4600203B49FCF785
:10377000F8FF04460D4622462B4610461946FCF734
:1037800064FE8B46824602460B46FCF75EFE074609
:103790000246334888460B4606217844FFF7A2FDCF
:1037A00052465B46FCF751FE82462E488B463A460F
:1037B000434605217844FFF795FD3A464346FCF71A
:1037C00044FE02460B46002E504659460CDAFCF7E2
:1037D00095FD22462B46FCF738FE01B022462B46CB
:1037E000BDE8F04FFCF72EBEFCF788FD22462B46C5
:1037F000FCF72BFE1C4A7A4402EBC603D3E90023F4
:10380000FCF71DFE22462B46FCF719FE174A7A44A8
:1038100002EBC603D3E90023FCF714FE009A002A4A
:10382000B8BF81F00041BDE8F88F000000001044EF
:103830000000F07F182D4454FB21F93FFB21F9BF14
:103840000000DC3F0000203E0000F33F0000F03F9E
:103850000000E63F008003400000F83F0000F0BF9A
:10386000B2060000700600000E060000D60500003B
:103870002DE9F04D9446CCF1000423F000464CEACB
:103880000404524F46EAD4749A46884621F0004216
:10389000BC4206D8454240EA050442EAD474BC4220
:1038A00004D9BDE8F04D6246FFF774BDAAF140555A
:1038B000A5F17F6555EA0C040BD0022404EAAA7432
:1038C000434DDFF810E144EAD87452EA000B04D00B
:1038D0000CE0BDE8F04DFFF7BBBE002C14BF012C7F
:1038E000BDE8F08D022C30D0032C32D056EA0C0B00
:1038F0000AD0BE4220D1BA4209D126F0804622F039
:1039000080423346114617E000291ADB25E0DFF834
:10391000C8B0FB44002C04BFDBE90001BDE8F08D1A
:10392000012C02BFDBE9000181F00041BDE8F08D10
:10393000022C0AD0032C0CD0BA4212D1B8F1000FDD
:103940000BDA23482549BDE8F08D28462449BDE817
:10395000F08D28467146BDE8F08D1D482149BDE82F
:10396000F08D921B12153C2AC4BF19481D490EDC6C
:10397000BAF1000FBEBF12F13C0F0020014606DB7A
:103980006246FCF7EEFE21F00041FFF761FE002CDD
:1039900008BFBDE8F08D012C04BF81F00041BDE8F7
:1039A000F08D114A114B022C07D0FCF748FD2A4636
:1039B000BDE8F04D0A4BFCF742BDFCF740FD2A463E
:1039C000BDE8F04D064BFCF73DBD00000000F07F68
:1039D000182D4454FB2109C06A050000FB21F9BFE2
:1039E000FB210940FB21F93F075C143326A6A13CCB
:1039F00000B585B06846FEF75BFD04490098B0FB52
:103A0000F1F00349086005B000BD000040420F001E
:103A10001400002030B50446FDF704FD054600BF44
:103A2000FDF700FD401B04EB4401C1EBC411B0EBFA
:103A3000C10FF5D330BD2DE9F04104460D46216993
:103A40002068FCF793FB606061696068FCF78EFB9F
:103A5000064631466068FCF713FCE0602846A16822
:103A6000FCF7D6FB0746E168FCF7D8FB0646A168E1
:103A7000FCF77CFBA0604FF07E50E168FCF7C8FBD0
:103A800006466168FCF7CAFB2060BDE8F0810000D3
:103A9000FFF7AEFF4FF4A060FEF724FC1648006865
:103AA0004FF47A72B0FBF2F1B1F1807F00D31DE0E8
:103AB00021F07F40401E4FF0E022506150170F224E
:103AC000002807DA13071D0E0C4B00F00F04241F0B
:103AD0001D5503E013071C0E094B1C5400BF0020AA
:103AE0004FF0E02290610720106100BFFCF733FF28
:103AF00001E0FEF703FCFCE70000002018ED00E009
:103B000000E400E010B5024600200EE0002352F869
:103B10002040E36052F82040A36052F82040A362A6
:103B200052F820406360431CD8B28842EEDB10BDDF
:103B30002DE9F05F04460E46616A2068FCF768FBD9
:103B4000054631462846FCF769FB8046E168FCF7EC
:103B50000DFBE060A1682846FCF75AFB8046314621
:103B6000FCF78EFB0746A0693946FCF757FB8146F8
:103B7000E1686069FCF752FB824620692946FCF740
:103B80004DFB83465146FCF7F1FA80464946FCF767
:103B9000EDFAA062A560BDE8F09F00004FF0804004
:103BA0000F4908610F4908614FF081400E490861D3
:103BB00000200B4948610B4948610B4948610B489B
:103BC00007498861074988614FF07C500649886140
:103BD00007480849086108490861084908617047B1
:103BE0001C01002050010020840100200AD7A33DC1
:103BF0000000E040B8010020EC010020200200207D
:103C000042488088B0F5966F07DA4048C088B0F522
:103C1000966F02DAFF203E4908703D48007804287C
:103C200034D006DC012809D0022811D0032866D13F
:103C300022E01F2834D0FF2861D14FE0334880882C
:103C400040F27E41884202DA0220314908705AE08F
:103C50002E488088B0F5E16F0DDD2E480078401CBD
:103C60002C49087008460078052804DD00200870FB
:103C700003202749087046E02448808840F27E41AE
:103C8000884202DA0420224908703CE001202249DF
:103C900008701F201E49087000202049887032E0FB
:103CA0001A48808840F2154188420CDA1C48018885
:103CB0000088401C1A4A1080B1F5FA6F0DDDFF2014
:103CC0001349087009E01448007818B9FF2010491A
:103CD000087002E000201249088014E002200F4919
:103CE000887000200E4908804FF496700B490880B8
:103CF00000200949087001200549087003E0FF20F1
:103D00000349087000BF00BF704700000801002091
:103D10009C000020A0000020260000203C00002085
:103D20009E0000202DE9F04106460F46FCF7C2FD3B
:103D3000041E0D4618BF0120284320F00040C0F1AA
:103D40007F6000F1E040C00F0ED0301C18BF012092
:103D5000384320F00040C0F17F6000F1E040C00F28
:103D600004BF0120FFF736FB20462946BDE8F0815D
:103D7000112233445511223344550000DB0F4940D2
:103D8000E12E654235FA8E3CF6FF793D2E9E8B3A48
:103D9000D80FC93F00000000555555555555C53F32
:103DA0007D6FEB0312D6D4BF5544880E55C1C93F71
:103DB0003B8F68B52882A4BF88B20175E0EF493F08
:103DC00009F7FD0DE13D023F4B2D8A1C273A03C048
:103DD000C88A599CE52A004059018D1B6C06E6BF34
:103DE00082922EB1C5B8B33F4FBB610567ACDD3FD2
:103DF000182D4454FB21E93F9BF681D20B73EF3F12
:103E0000182D4454FB21F93FE2652F227F2B7A3C89
:103E1000075C143326A6813CBDCBF07A8807703C42
:103E2000075C143326A6913CC4EB98999999C9BFB5
:103E3000711623FEC671BCBF6D9A74AFF2B0B3BFEA
:103E40009AFDDE522DDEADBF2F6C6A2C44B4A2BFAA
:103E50000D5555555555D53FFF8300922449C23F16
:103E60006E204CC5CD45B73F513DD0A0660DB13F4A
:103E7000EB0D76244B7BA93F11DA22E33AAD903F5C
:103E80000000000000000000A83E00080000002024
:103E9000F0000000B4330008983F0008F000002054
:103EA00060060000C433000800A24A0400000000BD
:103EB00000000000010203040607080900000000DA
:103EC00000000000000000000000000000000000F2
:103ED00000000000010203040102030406070809B0
:103EE000020406082C01020000000000F00000207F
:103EF0000AD7A33C00000000000000000000000002
:103F00006F12833A0C020B3F0AD7A33C000000005B
:103F100000000000000000006F12833A0C020B3F0B
:103F20000AD7A33C000000000000000000000000D1
:103F30006F12833A0C020B3F000000AAAAEF0200A6
:103F40000000000001000000000000001C01002033
:103F50005001002084010020EC010020B801002065
:103F600020020020540200208802002000000000EF
:103F7000000000000101000000000000CDCC4C3F1B
:103F800052499D390000803F000000000000000001
:083F9000000000000000000029
:04000005080000ED02
:00000001FF
