:020000040800F2
:100000005007002001010008112600083D1A0008D1
:10001000C92000082D1000088D38000800000000DD
:10002000000000000000000000000000912E000809
:100030004F10000800000000CD2800087D2F0008A8
:100040001B0100081B0100081B0100081B01000820
:100050001B0100081B0100081B0100081B01000810
:100060001B0100081B0100081B0100081B01000800
:100070001B0100081B0100081B0100081B010008F0
:100080001B0100081B0100081B0100081B010008E0
:100090001B0100081B0100081B0100081B010008D0
:1000A0001B0100081B0100081B0100081B010008C0
:1000B0001B010008193100081B0100081B01000882
:1000C0001B0100081B0100081B0100081B010008A0
:1000D0001B0100081B0100081B0100081536000861
:1000E0001B0100081B0100081B010008DFF80CD0F1
:1000F00000F0C4FB0048004765400008500700209E
:100100000648804706480047FEE7FEE7FEE7FEE7B1
:10011000FEE7FEE7FEE7FEE7FEE7FEE78D2F0008BD
:10012000ED00000840EA01039B0703D009E008C97D
:10013000121F08C0042AFAD203E011F8013B00F8AC
:10014000013B521EF9D27047D2B201E000F8012BF8
:10015000491EFBD270470022F6E710B513460A4647
:1001600004461946FFF7F0FF204610BDF0B480EAC0
:100170000102D40F4200B2EB410F02D20246084600
:1001800011464A0042D0C30DDDB2C1F3C752AD1AC9
:10019000202D35DAC1F3160141F4000204B15242B8
:1001A000C5F1200602FA06F12A411044B3EBD05FF4
:1001B00023D0C4B1012DA0EBC35009DCF0BC4FF03B
:1001C000004202EAC352DBB200F5000000F044BA7C
:1001D000400000F1807000EBC350A0F1807040EA55
:1001E000D170490009E0490841EAC071A0EBC35051
:1001F00000F50000400800EBC350F0BC00F023BA4B
:100200006142012202EB4101001BF6E7F0BC70479E
:1002100081F00041AAE780F00040A7E780EA0102F0
:1002200010B502F00043400022D04A001FD0010E5A
:1002300001EB1261C0F35600C2F3560240F4000015
:1002400042F40002A0FB022000047F39140400D015
:10025000401C50EA124001D44000491EC2B20C06B4
:1002600004EBD010401C4008802A02D003E000209C
:1002700010BD20F00100002900DA0020184310BD55
:1002800030B480EA010202F0004530F0004221F073
:10029000004013D090B1C30DD40DC2F31601C0F3CA
:1002A0001600E41A41F4000140F400027D3491424A
:1002B00001D3641C00E04900002C02DA30BC0020AD
:1002C00070474FF400000023914201D3891A034381
:1002D00040084FEA4101F7D151B1914202D14FF0AC
:1002E000004105E002D24FF0010101E06FF0010191
:1002F00003EBC450284430BC00F0A5B92DE9FE4FF3
:10030000804681EA0300C00F0C46009021F00041B6
:1003100023F00045B8EB0200A94105D24046214632
:1003200090461C460B46024623F00040104347D03F
:10033000270DC7F30A00C3F30A510290401A019037
:1003400040286BDAC3F3130040F4801B00989246F8
:1003500020B10023D2EB030A63EB0B0B0198594643
:10036000C0F14002504600F04DF906460D46504699
:100370005946019A00F055F910EB0800614100243C
:1003800087EA115284EAE7731A4340D0009A62B3B5
:10039000019A012A4FEA075215DC001B61EB0201AA
:1003A0004FF0004202EA0752CDE90042001C41F53D
:1003B000801132462B4600F08CF903B0BDE8F08F77
:1003C00040462146F9E7001B61EB0201001C41F5A4
:1003D000801300185B412018A2F5001747EB0301BA
:1003E00040EAD570B6196D4111E06D084FEA360646
:1003F00045EAC0754FEA0752001B61EB0201001C81
:1004000041F5801149084FEA300000195141324648
:100410002B4603B0BDE8F04F00F04CB90098012224
:1004200040000023D0EB020263EBE073009821460A
:100430004FEAE074B8EB000061EB0401E9E783F0F8
:1004400000435BE781F0004158E72DE9FE4F81EA68
:10045000030404F0004421F0004100944FF0000B2D
:1004600023F0004350EA01045ED052EA03045BD05B
:10047000C3F30A54C1F30A552C44A4F2F334019493
:10048000A0FB0254C1F3130141F48011C3F3130321
:1004900043F4801301FB024400FB034E840A970AD5
:1004A00044EA815447EA8357A4FB076802958D0A02
:1004B00005FB07854FEA932C04FB0C542705029D8E
:1004C0004FEA065847EA1637B5EB08056EEB070CFE
:1004D000870E920E47EA811742EA8312A7FB0201B8
:1004E000B6EB0B0164EB00042B0D43EA0C335E18F2
:1004F00044EB1C50DA465146E7FB0201C5F31304F6
:100500004FEA0B3343EA14534FEA0432019C43EAA7
:100510000603A4F10C040294009CCDE900B400F0A1
:10052000D8F803B0BDE8F08F00200146F9E7C10F0D
:1005300080EAE0700844CA079623002100F08CB8D6
:1005400096230022114600F087B800F0004220F008
:100550000040C10DC0F3160040F400007F2901DA0D
:1005600000207047962903DCC1F19601C84001E0E4
:1005700096398840002AF4D04042704700F000428B
:1005800030F000400AD0C10D01F56071C0F31600D3
:1005900042EA0151C208400711437047002001465A
:1005A000704701F0004330B421F0004150EA0102ED
:1005B00006D00A0DA2F56072C1F31301002A02DC15
:1005C00030BC00207047440F44EAC104C100E01869
:1005D00030BC00EBC25000F036B80000002801DB50
:1005E000C0F10040002901DBC1F1004181427047A8
:1005F000002801DBC0F10040002901DBC1F100410E
:1006000088427047202A04DB203A00FA02F10020D9
:1006100070479140C2F1200320FA03F31943904040
:100620007047202A06DBCB17203A41FA02F043EA52
:10063000E07306E041FA02F3D040C2F1200291409B
:100640000843194670470029A8BF7047401C49005D
:1006500008BF20F00100704710B4B0FA80FC00FA27
:100660000CF050EA010404BF10BC704749B1CCF152
:10067000200421FA04F411FA0CF118BF01212143DE
:100680000843A3EB0C01CB1D4FEA00614FEA102099
:1006900042BF002010BC704700EBC350104400293B
:1006A000A4BF10BC7047401C490008BF20F00100E7
:1006B00010BC704710B5141E73F1000408DA401C1A
:1006C00041F1000192185B411A4301D120F0010071
:1006D00010BD2DE9F04D92469B4611B1B1FA81F261
:1006E00002E0B0FA80F220329046FFF78BFF04461A
:1006F0000F4640EA0A0041EA0B0153465A460843B6
:1007000013D0114653EA010019D0C8F140025046F7
:1007100000F0C6F805460E46504659464246FFF7D9
:1007200071FF084305D0012004E020463946BDE8AA
:10073000F08D0020054346EAE0762C4337430A98C3
:100740006305E40AA0EB08000022FD0A44EA4754CE
:100750000A3002D500200146E9E701051019694178
:10076000DDE9084500196941BDE8F04DA2E72DE932
:10077000F04D81EA030404F0004B21F000451446DB
:100780004FF0000A23F0004150EA050220D054EA5D
:1007900001021DD0C5F30A570246C5F31303C1F386
:1007A0001300C1F30A5640F4801543F48013A7EBFD
:1007B0000608101BD64608F2FD3873EB050002D37D
:1007C00008F1010801E092185B41B8F1000F03DA6B
:1007D00000200146BDE8F08D00204FF48011064650
:1007E00084460EE0171B73EB050705D3121B63EB62
:1007F000050306434CEA010C49084FEA3000921801
:100800005B4150EA0107EDD152EA030012D082EABF
:10081000040083EA0501084305D0101BAB4106D252
:100820000122002306E000224FF0004302E06FF0B7
:10083000010253101AEB06004CEB085110EB0A00B2
:1008400041EB0B01BDE8F04DFFF734BF70B521F06F
:10085000004303430CD0C1F30A550024D5EB040533
:1008600064EB0403D617AD1AB34102DB0020014646
:1008700070BD201841EB025170BD0000064C074DC1
:1008800006E0E06840F0010394E807009847103460
:10089000AC42F6D3FFF72EFC604400088044000809
:1008A000202A04DB203A21FA02F00021704721FAC5
:1008B00002F3D040C2F1200291400843194670472C
:1008C0002DE9F04D00231A461B1A8A4103DB002054
:1008D0000146BDE8F08DC1F30A52C1F3130141F4A2
:1008E00080154FF0000BD10702D100186D41521E48
:1008F0000027044640F2FF11384601EB620A3E46EB
:100900008046024600204FF48011FFF7C9FFC2194C
:100910007141BB1846EB0100B4EB030C75EB000C06
:1009200004D3E41A65EB000517460E46241908F1B6
:1009300001006D4180463428E3DDF91946EB0600DD
:10094000091BA84103D24FF0FF32134601E00022F9
:1009500013461BEB070046EB0A51BDE8F04DFFF7CD
:10096000A9BE10B501F0EAFA03F004FC01F090FB17
:1009700001F002FE02F0FAFD01F04EFF02F036FB3C
:1009800002F098FB10BD000010B5044694F9020077
:1009900011281FD008DC012839D0022838D00328BC
:1009A00053D0102852D108E0122820D013282BD081
:1009B00014282AD0152849D128E02648007820F0AC
:1009C0000100401C234908701222211D2248FFF714
:1009D000A9FB3CE01222211D2048FFF7A3FB1D4884
:1009E000007820F00200801C1A4908702FE01222C3
:1009F000211D1B48FFF796FB1648007820F00400E5
:100A0000001D1449087022E021E020E01FE01EE0F4
:100A10002079212813D004DC012807D0022811D125
:100A20000CE0A0280CD0A1280CD10AE009480078DD
:100A300020F0400040300749087004E003E002E085
:100A400001E000E000BF00BF01E000E000BF00BF28
:100A500010BD000090000020D4020020E60200201B
:100A6000F80200202DE9F04F87B00746022601ACBE
:100A70004FF000084FF000094FF0000A162F7CD20B
:100A8000DFE807F07BD6C793FCFB91FA7B7B7BF911
:100A90007B7B7B7B0B12191E1F20DFF8E482DFF8C3
:100AA000E492DFF8E4A20EE0DFF8E082DFF8E09203
:100AB000DFF8E0A207E0DFF8E082DFF8E09202E092
:100AC00000BF00BF00BFB8F1000F20D0D8F8100061
:100AD000B349FFF7A3FB8346FFF737FD00B2ADF83C
:100AE0000800D8F81400AE49FFF798FB8346FFF7DB
:100AF0002CFD00B2ADF80A00D8F81800A849FFF79D
:100B00008DFB8346FFF721FD00B2ADF80C00B9F173
:100B1000000F20D0D9F81000A149FFF77FFB8346D2
:100B2000FFF713FD00B2ADF80E00D9F814009C4990
:100B3000FFF774FB8346FFF708FD00B2ADF8100025
:100B4000D9F818009649FFF769FB8346FFF7FDFCCB
:100B500000B2ADF81200BAF1000F22D0DAF810009E
:100B60008F49FFF75BFB8346FFF7EFFC00B2ADF860
:100B70001400DAF814008A4900E0CBE0FFF74EFBDE
:100B80008346FFF7E2FC00B2ADF81600DAF8180071
:100B90008349FFF743FB8346FFF7D7FC00B2ADF86C
:100BA00018001226B7E00826B5E07E48808800B21B
:100BB000ADF808007B48C08800B2ADF80A0079485B
:100BC000008800B2ADF80C007648408800B2ADF85D
:100BD0000E007448008900B2ADF8100071484089D9
:100BE00000B2ADF812006F48808900B2ADF8140071
:100BF0006C48C08900B2ADF816006A48008A00B29D
:100C0000ADF818006748408A00B2ADF81A00142603
:100C100081E0654801680291416803918068049011
:100C20006248016805918088ADF81800122672E0CC
:100C30005F48006880F000405E490090FFF7EEFAE0
:100C40008346FFF782FC00B2ADF8080058494868B7
:100C50005849FFF7E3FA8346FFF777FC00B2ADF897
:100C60000A005348806880F0004052490090FFF726
:100C7000D5FA834603E04CE049E03FE048E0FFF767
:100C800064FC00B2ADF80C000020ADF80E00ADF829
:100C900010004948407850B1012816D0022802D0EF
:100CA000032824D11EE00020ADF8120023E04248C2
:100CB0000078012804D140F20110ADF8120003E0E1
:100CC0004FF48070ADF8120015E03B480078012821
:100CD00003D14002ADF8120003E040F20120ADF86C
:100CE000120008E040F20130ADF8120003E00020ED
:100CF000ADF8120000BF00BF0C260CE04FF4D2701C
:100D0000ADF808000020ADF80A00022603E002E07A
:100D100001E000E000BF00BF4AF6AA20ADF80400E1
:100D200046EA072000B2ADF806005421301D2154D8
:100D300002251AE06057691C615648406055681CDE
:100D4000205661574840691C6054605761564840BE
:100D50006055615D681C205C0144301D205C0844C6
:100D600041B2301D2154A81CC5B2301D8542E1DBC3
:100D7000701DC1B2204602F0CFFC07B0BDE8F08F75
:100D80001C0100205001002084010020EC01002003
:100D9000B801002020020020540200208802002018
:100DA00000007A4408010020F0000020200000200C
:100DB000FC0000200000C842260000202DE9F84376
:100DC0008C48007820B1012806D002286FD122E09B
:100DD0000120884908700AE10220FFF743FE012044
:100DE00003F002F90120FFF73DFE012003F0FCF8BB
:100DF0000520FFF737FE012003F0F6F80320FFF788
:100E000031FE012003F0F0F87B48007810B1022099
:100E100078490870EBE07848007810B901207549EE
:100E2000087075480078C0F38010B8B11020FFF743
:100E300019FE012003F0D8F81120FFF713FE01205E
:100E400003F0D2F81220FFF70DFE012003F0CCF8DA
:100E50006948007820F040006749087066480078CB
:100E600000F03F0000287DD00025002600276248C2
:100E7000007800F0010050B1604D614E614F624C4E
:100E80005D48007820F001005B49087020E05A4876
:100E90000078C0F3400058B15C4D5D4E5D4F5E4C34
:100EA0005548007820F002005349087010E09DE09A
:100EB00051480078C0F3800048B1584D584E594C05
:100EC0004D48007820F004004B49087000E08EE0A7
:100ED00065B320788DF8010060788DF80000BDF8CA
:100EE0000000FFF72DFB80464F49FFF7C9F9286145
:100EF000A0788DF80100E0788DF80000BDF80000C2
:100F0000FFF71EFB80464849FFF7BAF96861207970
:100F10008DF8010060798DF80000BDF80000FFF742
:100F20000FFB80464049FFF7ABF9A86176B3A07983
:100F30008DF80100E0798DF80000BDF80000FFF7A2
:100F4000FFFA80463849FFF79BF93061207A8DF827
:100F50000100607A8DF80000BDF80000FFF7F0FA9C
:100F6000804600E041E03049FFF78AF97061A07ADD
:100F70008DF80100E07A8DF80000BDF80000FFF761
:100F8000DFFA80462849FFF77BF9B06167B3207B21
:100F90008DF80100607B8DF80000BDF80000FFF7C0
:100FA000CFFA80462049FFF76BF93861A07B8DF8B6
:100FB0000100E07B8DF80000BDF80000FFF7C0FAEB
:100FC00080461949FFF75CF97861207C8DF80100B3
:100FD000607C8DF80000BDF80000FFF7B1FA804694
:100FE0001149FFF74DF9B86100BF00E000BF00BF35
:100FF000BDE8F88391000020900000201C01002033
:101000005001002084010020D4020020EC010020C7
:10101000B801002020020020E60200205402002037
:1010200088020020F802002000007A4400BFFEE79A
:1010300070B506460C4615462946204603F064F86E
:10104000A06A30602946304603F05EF870BD7047F4
:1010500070B5044642480078012806D00B280BD012
:101060001F2817D0FF286FD165E03E48007810B1E7
:101070000B203B4908706BE008213B4803F02EF839
:1010800000203A4948620860394988601F20344985
:1010900008705DE03749B1F90600FFF748FA0546E8
:1010A000354801682846FFF7B9F8344948623149A4
:1010B000B1F90800FFF73BFA05462F4801682846BA
:1010C000FFF7ACF82E4948622A49B1F90A00FFF748
:1010D0002EFA0546284801682846FFF79FF8294957
:1010E00048622348406828494862214800682749E7
:1010F00048621F4880681D4948622146234803F022
:1011000003F82248806A1D49086021461B4802F006
:10111000FBFF21461C4802F0F7FF1B48806A184974
:1011200008602146164802F0EFFF22460F49154895
:10113000FFF77EFF0CE008210B4802F0CFFF0120F3
:101140000749087004E0FFE7FF200549087000BF69
:1011500000BF0448007810B9FF200149087070BD35
:10116000CC00002026000020A40000202002002047
:10117000FC000020F0000020604300081C0100205B
:101180005001002084010020B8010020EC01002063
:101190002DE9F0410246002500260020002300240E
:1011A000002791F803C00CF00F0591F803C00CF074
:1011B000100CBCF1000F03D091F802C04CEA0505F9
:1011C00091F800C0BCF1000F31D0146800202BE072
:1011D0004FF0010C0CFA00F3B1F800C00CEA030662
:1011E0009E4220D183004FF00F0C0CFA03F7BC4352
:1011F00005FA03FC4CEA040491F803C0BCF1280F83
:1012000006D14FF0010C0CFA00FCC2F814C00AE041
:1012100091F803C0BCF1480F05D14FF0010C0CFA56
:1012200000FCC2F810C0401C0828D1D31460B1F8EB
:1012300000C0BCF1FF0F34DD546800202EE000F147
:10124000080C4FF0010808FA0CF3B1F800C00CEAE2
:1012500003069E4221D183004FF00F0C0CFA03F7D6
:10126000BC4305FA03FC4CEA040491F803C0BCF14A
:10127000280F05D100F1080C08FA0CF8C2F8148008
:1012800091F803C0BCF1480F07D100F1080C4FF0F2
:10129000010808FA0CF8C2F81080401C0828CED3C8
:1012A0005460BDE8F08101617047000007B5A4B04B
:1012B0004FF07C512698FEF7B1FF1190FE488068F0
:1012C0000D90FD4800680C900D99FEF7A7FF0F9058
:1012D000F948C0680D90F84840680C900D99FEF7E9
:1012E0009DFF0E900F99FEF793FF4FF080411090F5
:1012F000FEF794FF2090F048C0680D90EE4880689B
:101300000C900D99FEF78AFF0F90EB4840680D9006
:10131000E94800680C900D99FEF780FF0E900F9938
:10132000FEF724FF4FF080411090FEF777FF2190E9
:10133000E14880680C90E04880680B900C99FEF7BB
:101340006DFF0E90DC4840680C90DB4840680B90C5
:101350000C99FEF763FF0D900E99FEF707FF4FF013
:1013600080410F90FEF75AFF4FF07E511090FEF72C
:1013700052FF2290D148B0F904000B90FFF7D7F844
:101380000D90CE48B0F904000B90FFF7D0F80C9008
:101390000D99FEF743FF0F90C848B0F9020009907D
:1013A000FFF7C5F80B90C548B0F902000990FFF7A8
:1013B000BEF80A900B99FEF731FF0D90BF48B0F9C7
:1013C00000000990FFF7B3F80B90BC48B0F900009B
:1013D0000990FFF7ACF80A900B99FEF71FFF0C90ED
:1013E0000D99FEF7C3FE0E900F99FEF7BFFE109009
:1013F00001F000FBB24908602498B0F900000F909A
:10140000FFF795F81090AE4801681098FEF706FFB8
:101410001D902498B0F902000F90FFF788F8109003
:10142000A74801681098FEF7F9FE1E902498B0F9BD
:1014300004000F90FFF77BF81090A1480168109806
:10144000FEF7ECFE1F9021980E901F980D900E99BC
:10145000FEF7E4FE109022980E901E980D900E99C3
:10146000FEF7DCFE0F901099FEF7D2FE179022983F
:101470000E901D980D900E99FEF7D0FE10902098BA
:101480000E901F980D900E99FEF7C8FE0F901099C0
:10149000FEF7BEFE189020980E901E980D900E99A3
:1014A000FEF7BCFE109021980E901D980D900E999D
:1014B000FEF7B4FE0F901099FEF7AAFE1990179848
:1014C0000F90804801680F98FEF7A8FE10907E48A4
:1014D000006801460F901098FEF748FE7A490860B0
:1014E00018980F90774801680F98FEF797FE1090B4
:1014F0007548406801460F901098FEF737FE724914
:10150000486019980F906F4801680F98FEF786FEA3
:1015100010906D48806801460F901098FEF726FEE7
:1015200069498860179801460D9068480068FEF781
:1015300075FE0F902498B0F906000C90FEF7F7FFA7
:101540000D90634801680D98FEF768FE0E900F99A4
:10155000FEF70CFE10905C48006801460F90109852
:10156000FEF704FE1A90189801460D90574800683F
:10157000FEF754FE0F902498B0F908000C90FEF787
:10158000D6FF0D90524801680D98FEF747FE0E9069
:101590000F99FEF7EBFD10904B48406801460F9005
:1015A0001098FEF7E3FD1B90199801460D904748EF
:1015B0000068FEF733FE0F902498B0F90A000C90F3
:1015C000FEF7B5FF0D90424801680D98FEF726FE24
:1015D0000E900F99FEF7CAFD10903B4880680146B7
:1015E0000F901098FEF7C2FD1C901C980D90324889
:1015F000C0680C900D99FEF711FE0F901B980B9090
:101600002D4880680A900B99FEF708FE0D902A4835
:10161000406880F000400B901A9801460A900B98A1
:10162000FEF7FCFD0C900D99FEF7F2FD0E900F9960
:10163000FEF7EEFD10901199FEF7F0FD16901C9844
:101640000D901D4880680C900D99FEF7E7FD0F90F6
:101650001B980B901848C0680A900B99FEF7DEFDA6
:101660000D901A980B90144800680A900B99FEF799
:10167000D5FD0C900D99FEF7CBFD0E900F99FEF75E
:1016800075FD10901199FEF7C9FD15901C980D90ED
:10169000094840680C900D99FEF7C0FD0F901B980B
:1016A0000B90054800680A900B99FEF7B7FD0D9066
:1016B0001A980B9000480DE0DC000020F00000209C
:1016C000D0000020D800002044030020D4000020D7
:1016D00064430008C0680A900B99FEF79FFD0C90C8
:1016E0000D99FEF743FD0E900F99FEF791FD1090B6
:1016F0001199FEF793FD14901C980D90B94800685D
:101700000C900D99FEF78AFD0F901B980B90B54831
:1017100040680A900B99FEF781FD0D90B1488068F2
:1017200080F000400B901A9801460A900B98FEF743
:1017300075FD0C900D99FEF719FD0E900F99FEF7AF
:1017400015FD10901199FEF769FD1390A5480068EA
:1017500010901699FEF70AFDA249086008464068F5
:1017600010901599FEF702FD9E4948600846806872
:1017700010901499FEF7FAFC9A4988600846C068F0
:1017800010901399FEF7F2FC9649C8600846C068AD
:101790000D900846C0680C900D99FEF73FFD0F9024
:1017A000904880680B908F4880680A900B99FEF7EC
:1017B00035FD0D908B48406809908A484068089034
:1017C0000999FEF72BFD0B90864800680990854823
:1017D000006808900999FEF721FD0A900B99FEF721
:1017E000C5FC0C900D99FEF7C1FC0E900F99FEF709
:1017F000BDFC109001F0FEF812907A48006810903D
:101800001299FEF70BFD7749086008464068109072
:101810001299FEF703FD73494860084680681090EE
:101820001299FEF7FBFC6F4988600846C06810906B
:101830001299FEF7F3FC6B49C8602498B0F90A00CE
:101840000E90FEF774FE0F90674801680F98FEF740
:10185000E5FC109065491098FEF7CAFE04D3644970
:101860001098FEF7BBFE0DD226991098FEF7D6FC15
:101870000F902598806801460E900F98FEF776FC31
:10188000259988605B480068FEF778FECDE90C0179
:1018900054484068014603904FF08040FEF7BEFC7C
:1018A00004905048C068014603900498FEF7B6FCC7
:1018B00006904C480068014603904FF08040FEF7C8
:1018C000ADFC049047488068014603900498FEF7F9
:1018D000A5FC05900699FEF79BFC0790FEF74EFECF
:1018E000CDE9080102F066F8CDE90A01DDE90C2333
:1018F000FEF7ABFDCDE90E01FEF753FE25994860DA
:101900003C480068FEF73AFECDE90C013548806896
:10191000014601904FF08040FEF780FC0290314874
:101920008068014601900298FEF778FC04902D48EB
:101930004068014600904FF08040FEF76FFC019038
:1019400028484068014600900198FEF767FC4FF078
:101950007E510290FEF75FFC03900499FEF758FC5D
:101960000590FEF70BFECDE908011E480068014610
:1019700001904FF08040FEF751FC029019484068FA
:10198000014601900298FEF749FC049015488068D2
:10199000014601904FF08040FEF740FC0290114854
:1019A000C068014601900298FEF738FC0390049944
:1019B000FEF7DCFB0590FEF7E1FDCDE90601DDE970
:1019C000082302F03FFACDE90A01DDE90C23FEF716
:1019D0003CFDCDE90E01FEF7E4FD2599086027B036
:1019E00000BD0000DC000020604300080000404013
:1019F000000040C05843000800BF0E4801684FF087
:101A0000E02082690B4800688142F6D10A480068EC
:101A100000EB4003C3EBC010C2EBC000064B1B68D9
:101A2000B0FBF3F001EB4103C3EBC11300EBC300C8
:101A3000704700001C0000201400002000BFFEE7DB
:101A400008B54020304908600120009004E09DF86E
:101A50000000401EC0B200909DF800000028F6D1A2
:101A60008020294908600120009004E09DF80000D2
:101A7000401EC0B200909DF800000028F6D1402022
:101A80002149091F08600120009004E09DF8000032
:101A9000401EC0B200909DF800000028F6D1012041
:101AA000009004E09DF80000401EC0B200909DF838
:101AB00000000028F6D10120009004E09DF800000D
:101AC000401EC0B200909DF800000028F6D1012011
:101AD000009004E09DF80000401EC0B200909DF808
:101AE00000000028F6D1402007490860012000903E
:101AF00004E09DF80000401EC0B200909DF8000078
:101B00000028F6D108BD0000140C014008B54020A3
:101B1000304908600120009004E09DF80000401E5C
:101B2000C0B200909DF800000028F6D1802029491D
:101B3000091F08600120009004E09DF80000401E8D
:101B4000C0B200909DF800000028F6D14020214945
:101B5000091F08600120009004E09DF80000401E6D
:101B6000C0B200909DF800000028F6D1012000903E
:101B700004E09DF80000401EC0B200909DF80000F7
:101B80000028F6D10120009004E09DF80000401EDE
:101B9000C0B200909DF800000028F6D1012000900E
:101BA00004E09DF80000401EC0B200909DF80000C7
:101BB0000028F6D14020074908600120009004E089
:101BC0009DF80000401EC0B200909DF80000002863
:101BD000F6D108BD140C014008B508210020802270
:101BE0002C4B1A604CE04206100E4022294B1B1D64
:101BF0001A600122009204E09DF80020521ED2B229
:101C000000929DF80020002AF6D10122009204E003
:101C10009DF80020521ED2B200929DF80020002AAA
:101C2000F6D140221B4B1A600122009204E09DF87D
:101C30000020521ED2B200929DF80020002AF6D158
:101C40000122009204E09DF80020521ED2B20092C0
:101C50009DF80020002AF6D10122009204E09DF8B0
:101C60000020521ED2B200929DF80020002AF6D128
:101C7000084A083A126802F080020AB140F00100F6
:101C80000A00A1F10103D9B2ADD14022014B1B1DC5
:101C90001A6008BD100C014008B5082150E0402230
:101CA0002C4B1A600122009204E09DF80020521E85
:101CB000D2B200929DF80020002AF6D100F08002F6
:101CC00022B18022234B1B1F1A6002E08022214B8D
:101CD0001A604206100E0122009204E09DF80020D6
:101CE000521ED2B200929DF80020002AF6D1402266
:101CF000184B1B1F1A600122009204E09DF800207F
:101D0000521ED2B200929DF80020002AF6D1012284
:101D1000009204E09DF80020521ED2B200929DF87D
:101D20000020002AF6D10122009204E09DF8002054
:101D3000521ED2B200929DF80020002AF6D100BFB8
:101D40000A00A1F10103D9B2A9D14022014B1A60C6
:101D500008BD0000140C014008B58020224908602D
:101D6000402008600120009004E09DF80000401E23
:101D7000C0B200909DF800000028F6D11A4808383B
:101D8000006808B9012000E0002000F0800008B1E0
:101D9000012008BD80201449091D08600120009021
:101DA00004E09DF80000401EC0B200909DF80000C5
:101DB0000028F6D10C480838006800F0800008B10F
:101DC0000120E6E740200849091D08600120009035
:101DD00004E09DF80000401EC0B200909DF8000095
:101DE0000028F6D100BFD4E7100C014008B5402010
:101DF000244908600120009004E09DF80000401E86
:101E0000C0B200909DF800000028F6D180201D4946
:101E100008600120009004E09DF80000401EC0B260
:101E200000909DF800000028F6D10120009004E009
:101E30009DF80000401EC0B200909DF800000028F0
:101E4000F6D140200F49091F08600120009004E0EE
:101E50009DF80000401EC0B200909DF800000028D0
:101E6000F6D180200749091F08600120009004E096
:101E70009DF80000401EC0B200909DF800000028B0
:101E8000F6D108BD140C014008B540202A4908606D
:101E90000120009004E09DF80000401EC0B20090B8
:101EA0009DF800000028F6D180202349091F086012
:101EB0000120009004E09DF80000401EC0B2009098
:101EC0009DF800000028F6D140201B49091F08603A
:101ED0000120009004E09DF80000401EC0B2009078
:101EE0009DF800000028F6D10120009004E09DF844
:101EF0000000401EC0B200909DF800000028F6D1FE
:101F00000120009004E09DF80000401EC0B2009047
:101F10009DF800000028F6D107480C38006800F052
:101F2000800020B1402004490860012008BD402005
:101F3000014908600020F9E7140C014008B50121AF
:101F4000082000F08FFDC020ADF8000003208DF8C0
:101F5000020014208DF8030069460248FFF718F9C3
:101F600008BD0000000C014070B504460D46002677
:101F7000FFF7F2FE012800D170BD2046FFF78CFE6E
:101F8000FFF782FF012803D1FFF730FF0120F3E7BD
:101F90002846FFF781FEFFF777FFFFF727FFFFF7E0
:101FA000DBFE611CC8B2FFF777FEFFF76DFF01286B
:101FB00003D1FFF71BFF0120DEE7FFF70DFE06460A
:101FC000FFF7A4FDFFF712FF70B2D5E770B5064624
:101FD0000C461546FFF7C0FE012800D170BD304603
:101FE000FFF75AFEFFF750FF012803D1FFF7FEFE6F
:101FF0000120F3E72046FFF74FFEFFF745FF284695
:10200000FFF74AFEFFF740FFFFF7F0FE0020E5E78D
:102010002DE9F04106460F4615461C46FFF79CFE8B
:10202000012801D1BDE8F0813046FFF735FEFFF70A
:102030002BFF012803D1FFF7D9FE0120F2E7384634
:10204000FFF72AFEFFF720FFFFF7D0FEFFF784FE21
:10205000711CC8B2FFF720FEFFF716FF012803D15D
:10206000FFF7C4FE0120DDE70CE0FFF7B5FD2870A7
:10207000012C02D1FFF74AFD01E0FFF7E1FC6D1CE6
:10208000601EC4B2002CF0D1FFF7B0FE0020C9E7FB
:1020900008B54FF000700A4948600121082000F09F
:1020A000E1FC40F20630ADF8000010208DF803008E
:1020B00003208DF8020069460248FFF769F808BD61
:1020C00000000140000C014000BFFEE72DE9F04791
:1020D0009948007810B9FF2098490870974800780F
:1020E000012806D0022811D01F2819D0FF287DD141
:1020F000BCE000209249C8808880488008808E48D3
:10210000007810B102208D49087000BF8D4880888A
:1021100040F24C41884202DD1F2088490870B0E03F
:1021200088498988A1F57A70FEF701FA0646864843
:10213000816A3046FEF71AF80546FEF706FA04B241
:102140008048808840F21541884206DA00207C49A8
:10215000C88088804880088093E0002C01DA002045
:1021600006E0B4F5617F02DD4FF4617000E02046C7
:102170007349C880888048800880744A916A744A8C
:10218000906AFEF745F880467248816A4046FEF73D
:102190003FF806466A49B1F90000FEF7C8F907465C
:1021A0003146FDF7E3FF0546FEF7CFF900B264497B
:1021B0000880664A916A664A906AFDF7D7FF8046B2
:1021C0006448816A4046FDF7D1FF06465C49B1F993
:1021D0000200FEF7ACF907463146FDF7C7FF05469A
:1021E000FEF7B3F900B25649488000E048E058488D
:1021F000806A80F000485548816A4046FDF7B6FF86
:1022000007465448816A3846FEF702F806464C49AC
:10221000B1F90400FEF78BF981463146FDF7A6FFC0
:102220000546FEF792F900B2454988804848806A21
:1022300080F000484548816A4046FDF7E9FF0746BF
:102240004448816A3846FDF791FF06463C49B1F99A
:102250000600FEF76CF981463146FDF787FF05461B
:10226000FEF773F900B23649C8800AE0002034490D
:10227000C88088804880088001203049087000E0CC
:1022800000BF00BF2E48B0F90000002801DA00208E
:102290000BE02B48B0F90000B0F57A7F02DD4FF477
:1022A0007A7002E02648B0F900004FF0804188863D
:1022B0002348B0F90200002801DA00200BE0204892
:1022C000B0F90200B0F57A7F02DD4FF47A7002E0D7
:1022D0001B48B0F902004FF0804108871848B0F958
:1022E0000400002801DA00200BE01548B0F90400D2
:1022F000B0F57A7F02DD4FF47A7002E01048B0F951
:1023000004004FF0804188870D48B0F9060000288E
:1023100001DA00200BE00A48B0F90600B0F57A7F38
:1023200002DD4FF47A7002E00548B0F906000A4970
:102330000880BDE8F087000026000020CD000020C6
:10234000C400002008010020540200205001002099
:102350001C01002084010020400000402DE9FE4FB8
:1023600006236A463B21D020FFF752FE06230DF1DB
:1023700006024321D020FFF74BFE002458E0012045
:1023800000EB44001DF800001DF8141040EA012085
:10239000294931F81410401A00B22849096821F877
:1023A0001400032C1BDA2549096831F91400FEF7E3
:1023B000BEF8054604EB4401214A02EBC100294660
:1023C00001F023FE04EB44011D4A02EBC1018868C1
:1023D000FEF7BBF800B21949096821F81400022C75
:1023E00024DDE01EC5B2DFF85C801449096831F9CC
:1023F0001400FEF79CF882464146FDF70FFF0746A2
:10240000114951F825001149FDF708FF8146394669
:10241000FDF7ACFE0C4941F825000646FEF795F89D
:1024200000B20649096821F8140000BF601CC4B25C
:10243000062CA4DBBDE8FE8FBC0200204400002077
:10244000480000209A99193EC80200209A99593FE5
:10245000F0B58BB0182105A8FDF77DFE1E250526D9
:1024600077420020039004904048002101604160C1
:1024700081604FF400503D498880002201213C4892
:1024800000F0BCFE3BE000BF0A2001F0ADFDFFF70D
:1024900065FF002416E037480168E01C31F81000A1
:1024A00003A931F81410401A00B201A921F8140050
:1024B00030480168E01C31F8100003A921F814002D
:1024C000601C04B2032CE6DBBDF904000528DBDC4C
:1024D000BDF9040010F1050FD6DBBDF90600052893
:1024E000D2DCBDF9060010F1050FCDDBBDF9080007
:1024F0000528C9DCBDF9080010F1050FC4DB280070
:10250000A5F10101CDB2BED1002417E0FFF726FFEF
:10251000642C11DB00200CE005A951F82010154AAD
:10252000126832F91020114405AA42F82010411C0B
:10253000C8B20628F0DB00BF601C04B2B4F5B27F5D
:10254000E4DB002409E005A850F82400001200B2E2
:10255000064921F81400601C04B2062CF3DB0122AA
:102560001146034800F04AFE0BB0F0BDBC0200204B
:10257000000400404400002010B500244FF4007017
:1025800022490860401008600220091F08600420EA
:10259000086000BF80226B21D020FFF717FDC4B276
:1025A0001E2001F021FD02221921D020FFF70EFD8F
:1025B0002044C4B203226B21D020FFF707FD204442
:1025C000C4B203221A21D020FFF700FD2044C4B278
:1025D00018221B21D020FFF7F9FC2044C4B20922A5
:1025E0001C21D020FFF7F2FC2044C4B2002CD1D132
:1025F0007521D020FFF7B8FCC4B2682C01D00120AF
:1026000010BDFFF725FF0020FAE70000140C014081
:10261000704700001FB510A103C9CDE902010522D2
:1026200002A9302000F0BEF805226946102000F013
:1026300067F8002406E01DF80400A52800D003E098
:10264000601CC4B2052CF6DB00BF052C02D00120B3
:1026500004B010BD0020FBE7A5A5A5A5A5000000BE
:1026600008B50121042000F0FDF94FF40060ADF839
:10267000000010208DF8030003208DF80200694649
:102680001D48FEF785FD0121082000F0EBF94FF40D
:102690008050ADF8000010208DF8030003208DF865
:1026A000020069461548FEF773FD4FF400601249B9
:1026B0001031086040001149103108600011ADF878
:1026C000000048208DF8030003208DF802006946C1
:1026D0000948FEF75DFD4FF480710748FEF7E3FD02
:1026E00000F044FB4FF400600349143108604000DF
:1026F00002491031086008BD00080140000C01408B
:102700002DE9F04107460D4616464FF480500C491E
:102710000860384600F0A0FB8046002405E0FF205A
:1027200000F09AFB2855601CC4B2B442F7DB4FF4AA
:1027300080500349091F08604046BDE8F081000051
:10274000140C014070B504464FF4805007490860EE
:10275000204600F081FBFF2000F07EFB05464FF491
:1027600080500249091F0860284670BD140C0140C2
:1027700070B504460720FFF7E5FF054629462720E8
:1027800000F032F805F0400050B1202221466120CF
:10279000FFF7B6FFFF21E22000F026F8002070BD11
:1027A0000120FCE72DE9F04107460C4615464FF4A1
:1027B00080500C490860384600F04EFB80460026E9
:1027C00005E014F8010B00F047FB701CC6B2AE42E6
:1027D000F7DB4FF480500349091F08604046BDE80D
:1027E000F0810000140C014070B505460C464FF412
:1027F000805008490860284600F02EFB0646204617
:1028000000F02AFB4FF480500249091F086030464F
:1028100070BD0000140C014010B5FFF721FF4FF40C
:10282000007008490860401008600220091D086017
:102830000420086000BF00F061FAFFF7EBFE0128FA
:10284000F9D010BD100C014070B5002100230F22FB
:10285000C47804B3154C246804F4E064C4F5E0645F
:10286000210AC1F10403CA40447804FA03F18478D0
:102870001440214309010E4C0678A155047804F058
:102880001F050124AC4005786D11AD0005F1E02570
:10289000C5F8004109E0047804F01F050124AC40AC
:1028A000044D0678761145F8264070BD0CED00E029
:1028B00000E400E080E100E002490143024A1160C7
:1028C000704700000000FA050CED00E070470000C2
:1028D0004448006844490968401A444909888842C4
:1028E00000D270473F4800683F4908603F48807801
:1028F00006286FD2DFE800F026030E3243554FF46E
:1029000000703B4908600220086000020860042053
:10291000086063E03648001F006880F00200344918
:10292000091F08600846006880F4007008600846C7
:10293000006880F0040008600846006880F4807039
:1029400008604BE04FF400702949091D086002201F
:102950000860C0010860042008603FE04FF4007088
:10296000234908600220091D0860C001091F086092
:102970000420091D086002201C4988702EE00220F6
:102980001B49091D0860042008601948001F0068E1
:1029900080F400701649091F0860C8201349088098
:1029A0001CE04FF400701249091D086040100860D7
:1029B0000F48001F006880F002000D49091F0860E1
:1029C0000846006880F00400086064200749088019
:1029D00004E0FFE701200549887000BF00BF00BF89
:1029E0007FE700001C000020400000203C00002089
:1029F000100C01402DE9F05F04464FF07F594FF075
:102A00007C512046FDF70AFC824625462E460C489E
:102A1000A0EB6606354629465046FDF7FFFB834688
:102A20002946FDF7FBFB80464946FDF7F4FB0746C8
:102A30002946FDF7F3FB05462846BDE8F09F000058
:102A4000DF59375F29B1064AD2690243044BDA6184
:102A500004E0034AD2698243014BDA617047000007
:102A60000010024029B1064A92690243044B9A6160
:102A700004E0034A92698243014B9A617047000067
:102A80000010024030B500210022002400232D4D0B
:102A90006D6805F00C0121B1042905D0082923D166
:102AA00005E0294D056022E0274D05601FE0254D1A
:102AB0006D6805F47012234D6D6805F480340225AD
:102AC00005EB92421CB9214D554305600BE01D4DAD
:102AD0006D6805F400351DB11C4D5543056002E0DD
:102AE000194D5543056002E0174D056000BF00BF5A
:102AF000144D6D6805F0F0010909154D6B5C056812
:102B0000DD4045600F4D6D6805F4E061090A104D28
:102B10006B5C4568DD4085600A4D6D6805F4605169
:102B2000C90A0B4D6B5C4568DD40C560054D6D689D
:102B300005F44041890B074D6B5CC568B5FBF3F5A7
:102B4000056130BD0010024000127A0000093D000E
:102B500028000020380000202DE9F0415E48FFF7F2
:102B600007FE00287ED100255C490880002405E08E
:102B70005948005D2844C5B2601CC4B21F2CF7DB65
:102B80005548C07FA8426ED153480078AA28FAD190
:102B900051484078AF28F6D14F4840794E490979DD
:102BA00040EA01204E4908804B48C0794A4989795A
:102BB00040EA01204A4948804748407A4649097A14
:102BC00040EA0120464988804348C07A4249897AD0
:102BD00040EA01204249C8803F48407B3E49097B8A
:102BE00040EA01203E4908813B48C07B3A49897B45
:102BF00040EA01203A4948813748407C3649097CFF
:102C000040EA0120364988813348C07C3249897CBA
:102C100040EA01203249C8812F48407D2E49097D74
:102C200040EA01202E4908822B48C07D2A49897D2F
:102C300040EA01202A4948822A4E2B4F498840F217
:102C4000DC52501AFDF773FC80463146FDF7E6FA78
:102C5000264908602249098840F2DC52501AFDF7E3
:102C600066FC01E026E024E080463146FDF7D6FA16
:102C70001F4908601A48C08840F21C71884208DD6C
:102C80001C4908684FF07D51FDF770FA194908603A
:102C90000DE01348C08840F29C41884207DA15498C
:102CA00008684FF07D51FDF7B3FA1249086001F052
:102CB00093FA0FE009480088401C0849088008463C
:102CC0000088B0F5487F05DD002008800A490870BB
:102CD000FFF7A2FDBDE8F081230300209A00002049
:102CE000080100200AD7233DA69BC43AB801002062
:102CF000EC010020200200202600002010B54FF437
:102D0000006012490860052211492A20FFF74AFD98
:102D100001212120FFF768FD01212220FFF764FD3A
:102D20002D212520FFF760FD20213120FFF75CFDDC
:102D30000F212620FFF758FD0F212020FFF754FD1B
:102D40004FF400600149091F086010BD14080140DC
:102D50004D43000821B1028842F04002028004E0A5
:102D600002884FF6BF731A400280704700B587B0E3
:102D700001218803FFF766FE01210920FFF772FE9B
:102D80004FF480511C48FEF78EFA4FF46040ADF8C6
:102D9000040003208DF8060018208DF8070001A913
:102DA0001548FEF7F5F900211448FFF7D3FF00207E
:102DB000ADF808004FF48270ADF80A000020ADF8BD
:102DC0000C00ADF80E00ADF810004FF40070ADF837
:102DD00012001020ADF814000020ADF816000720F6
:102DE000ADF8180002A9054800F018F801210348C1
:102DF000FFF7B0FF07B000BD000C014000380040F5
:102E00000246002013890B400BB1012000E0002096
:102E100070470146888970478181704710B500224C
:102E2000028802F441520B884C8823438C88234348
:102E3000CC8823430C8923434C8923438C89234327
:102E4000CC8923431A430280838B4FF2FF742340C3
:102E500083830B8A038210BD10B5044600BF022194
:102E60000A48FFF7CDFF0028F9D021460748FFF7B1
:102E7000D3FF00BF01210548FFF7C2FF0028F9D0AA
:102E80000248FFF7C6FFC0B210BD00000038004086
:102E9000704710B500F002F810BD00000CB500201E
:102EA000019000903348006840F480303149086058
:102EB00000BF3048006800F4003000900198401CCA
:102EC0000190009818B90198B0F5A06FF1D1294888
:102ED000006800F4003010B10120009001E00020F3
:102EE00000900098012843D12348006840F010006A
:102EF000214908600846006820F003000860084681
:102F0000006840F0020008601A48406819494860AB
:102F10000846406848600846406840F48060486061
:102F20000846406820F47C1048600846406840F439
:102F3000E81048600846006840F08070086000BFF4
:102F40000C48006800F000700028F9D0094840687B
:102F500020F00300074948600846406840F002003E
:102F6000486000BF0348406800F00C000828F9D111
:102F70000CBD000000100240002002400248006822
:102F8000401C0149086070471C00002010B5134820
:102F9000006840F001001149086008464068104987
:102FA00008400E494860084600680E4908400B4931
:102FB00008600846006820F48020086008464068E1
:102FC00020F4FE0048604FF41F008860FFF761FFA7
:102FD0004FF000600449086010BD0000001002407E
:102FE0000000FFF8FFFFF6FE08ED00E000B589B035
:102FF00001210420FFF736FD0F20ADF80400032067
:103000008DF8060018208DF8070001A92848FEF762
:10301000BFF801210846FFF715FD40F2E730ADF893
:103020001C000820ADF818000020ADF81E00ADF817
:103030001A0006A94FF0804000F046FA6020ADF873
:1030400008000120ADF80A000020ADF80E00ADF830
:10305000100002A94FF0804000F0DAF80821C806FD
:1030600000F022F902A94FF0804000F027F9082172
:10307000C80600F075F902A94FF0804000F07EF913
:103080000821C80600F0CAF902A94FF0804000F0FC
:10309000CFF90821C80600F009FA0121880700F0DD
:1030A00081F80121880700F08CF809B000BD00000C
:1030B000000801401FB501210220FFF7C3FC1D20BD
:1030C0008DF8000001208DF8010003208DF802002A
:1030D00001208DF803006846FFF7B6FB40F22B1085
:1030E000ADF8080040F2CF20ADF804000020ADF8A4
:1030F0000A00ADF8060001A9064800F0E5F9012232
:103100001146044800F07AF80121024800F059F80D
:103110001FBD00000004004010B50121194800F057
:103120005CF870B318480068401C174908601748DD
:103130000078401C1549087015480078401C144957
:1031400008701248007801280BD100200F49087040
:10315000FFF704F9FFF700FD0E48FDF779FFFEF7D2
:10316000B5FF0B480078022807D1002008490870F5
:10317000094A0A490A48FEF799F80121014800F076
:103180001DF810BD000400401C00002018000020A5
:1031900019000020A69B443BB020CD3BFC00002042
:1031A000F000002021B1028842F08002028004E099
:1031B00002884FF67F731A4002807047CA4302822A
:1031C000704721B1028842F00102028004E00288C7
:1031D0004FF6FE731A400280704730B50246002059
:1031E00000230024158A05EA0103958905EA0104F4
:1031F00013B10CB1012000E0002030BD1AB1838969
:103200000B43838102E083898B43838170470000F5
:1032100070B5002400220023058C4FF6FE76354061
:103220000584028C8388048B4FF68F752C40B51E65
:103230002C400D882C43751E2A400D892A434D8849
:103240002A43144DA8420BD0134DA84208D0134D69
:10325000A84205D0124DA84202D0124DA84213D167
:103260004FF6F7752A404D892A434FF6FB752A40E1
:103270008D882A434FF6FF652B404FF6FF552B40B4
:103280008D892B43CD892B4383800483CD8885860C
:10329000028470BD002C0140003401400040014018
:1032A00000440140004801400A460021018B4FF6CE
:1032B000F7731940114301837047000070B5002473
:1032C00000220023058C4FF6EF7635400584028CF2
:1032D0008388048B48F6FF752C404FF6FF452C4041
:1032E0000D884FF6FF7606EA05252C434FF6DF756D
:1032F0002A400D8906EA05152A434D8806EA051578
:103300002A43154DA84202D0144DA8421DD14FF6B4
:103310007F752A404D894FF6FF7606EA05152A4348
:103320004FF6BF752A408D8806EA05152A434FF6E9
:10333000FF352B404FF2FF752B408D8906EA85053E
:103340002B43CD8906EA85052B4383800483CD88F2
:103350000587028470BD0000002C0140003401404C
:103360000A460021018B4FF2FF7319404FF6FF739D
:1033700003EA0223194301837047000070B500245B
:1033800000220023058C4FF6FF6635400584028C31
:103390008388848B4FF68F752C404FF6FC752C403C
:1033A0000D882C434FF6FF552A400D894FF6FF76C6
:1033B00006EA05252A434D8806EA05252A43154DC8
:1033C000A84202D0144DA8421DD14FF2FF752A40E9
:1033D0004D894FF6FF7606EA05252A434FF6FF355D
:1033E0002A408D8806EA05252A434EF6FF752B40B4
:1033F0004DF6FF752B408D8906EA05152B43CD89C7
:1034000006EA05152B4383808483CD888587028453
:1034100070BD0000002C0140003401400A4600212C
:10342000818B4FF6F7731940114381837047000079
:1034300070B5002200230024058C4EF6FF7635403F
:103440000584038C8488828B48F6FF752A404FF6EA
:10345000FF452A400D884FF6FF7606EA05252A43E8
:103460004DF6FF752B400D8906EA05352B434D8837
:1034700006EA05352B430B4DA84202D00A4DA8425F
:1034800008D14BF6FF752C408D894FF6FF7606EA82
:1034900085152C4384808283CD88A0F84050038416
:1034A00070BD0000002C0140003401400A4600219C
:1034B000818B4FF2FF7319404FF6FF7303EA02232B
:1034C0001943818370470000002202881D4B9842F7
:1034D0000ED01D4B98420BD0B0F1804F08D01B4B43
:1034E000984205D01A4B984202D01A4B984204D108
:1034F0004FF68F731A404B881A43174B984207D0E8
:10350000164B984204D04FF6FF431A40CB881A431B
:1035100002808B8883850B8803850A4B98420BD0E9
:10352000094B984208D00E4B984205D00D4B98425B
:1035300002D00D4B984201D10B7A0386012383827E
:1035400070470000002C014000340140000400409E
:1035500000080040000C0040001000400014004033
:1035600000400140004401400048014000B587B0E0
:1035700001212448FFF766FA27208DF80400002077
:103580008DF805008DF8060001208DF8070001A8D0
:10359000FFF75AF94FF48060ADF8180018208DF845
:1035A0001B0003208DF81A0006A91748FDF7F0FD4F
:1035B0004FF40060ADF8180004208DF81B0006A938
:1035C0001148FDF7E5FD114802900020ADF80C0010
:1035D000ADF80E00ADF81000ADF814000C20ADF8F9
:1035E000120002A90A4800F0E1F8012240F2255138
:1035F000074800F0B5F80121054800F0A5F807B02C
:1036000000BD000008000400000C014020A10700DC
:103610000048004070B53C4800883B48008840F2B4
:103620002551084000286ED03748001D008840B260
:103630003649374A127888543548007810B1012845
:103640001AD10AE0314890F90000563020B93048CC
:103650000078401C2E49087054E02C4890F9010075
:10366000513028B92A480078401C2949087002E0E6
:1036700000202749087045E0244890F90300001D08
:1036800023490978884205DD21480078401C2049FB
:10369000087037E00025002405E01C48005D284440
:1036A00045B2601CC4B21A4800788442F5DB174862
:1036B000174909784056A8421CD11448807815490A
:1036C00008710846457100208871002409E01148FE
:1036D00080791049095D084440B20E498871601C28
:1036E000C4B2062CF3DB07210A4800F015F807489E
:1036F000FDF74AF90020064908700449087048702F
:1037000000BF00BF00BF70BD004800400A0300209A
:10371000920000209300002070B505460E4600245C
:103720000DE000BF0748008800F080000028F9D0B5
:10373000285781B2034800F0A5F8601CC4B2B44217
:10374000EFDB70BD0048004021B1828942F4005295
:10375000828104E082894DF6FF731A4082817047AE
:10376000F0B50346002400260025002040F66A1725
:10377000B94200D100BF1846C1F3421401F01F0640
:10378000012707FA06F5012C01D10C3004E0022CC8
:1037900001D1103000E014301AB107682F430760E0
:1037A00002E00768AF430760F0BD00002DE9F04775
:1037B00086B005460E460024A24600BFA14600275B
:1037C000B08900B100BF2F462C8A4CF6FF70044030
:1037D000F08804432C82AC894EF6F3100440B08884
:1037E00031890843718908430443AC81AC8A4FF6A0
:1037F000FF400440B0890443AC8201A8FFF742F9BE
:103800001F48874202D1DDF810A001E0DDF80CA0CE
:10381000A88900F4004040B10AEBCA0000EB0A108E
:1038200031684900B0FBF1F807E00AEBCA0000EB91
:103830000A1031688900B0FBF1F86420B8FBF0F0A1
:1038400004012009642101FB1089A88900F40040CB
:1038500040B1322000EBC900B0FBF1F000F00700EE
:10386000044308E0322000EB09106421B0FBF1F0C2
:1038700000F00F0004432C8106B0BDE8F087000083
:1038800000380140C1F308028280704700BFFEE7A4
:10389000490050EAC12018BF04204A0D18BF40F06B
:1038A000010040F2FF72B2EB515F08BF40F002002E
:1038B000012808BF052070472DE9F0414F1E00EB9D
:1038C000C7010446D1E9000115461E4637F006023D
:1038D0000DD02A463346FCF7B8FD7F1E04EBC70324
:1038E000D3E90023FCF70AFD37F00602F1D1022FDD
:1038F00025D0042F13D0062F18BFBDE8F0812A462B
:103900003346FCF7A2FDD4E90A23FCF7F7FC2A466C
:103910003346FCF79AFDD4E90823FCF7EFFC2A466E
:103920003346FCF792FDD4E90623FCF7E7FC2A4670
:103930003346FCF78AFDD4E90423FCF7DFFC2A4672
:103940003346FCF782FDD4E90223FCF7D7FC2A4674
:103950003346FCF77AFDD4E90023BDE8F041FCF7DB
:10396000CDBC0122FCF772BFFCF7C8BC0022134695
:1039700010461146FCF7FBBE024A00201107FCF777
:1039800065BF000001FDFFFF02E008C8121F08C16B
:10399000002AFAD170477047002001E001C1121FD0
:1039A000002AFBD170470000014908607047000001
:1039B000EC0000202DE9F04D8D4F21F0004A86B03B
:1039C00005460C46BA452ADBAAEB070028430AD075
:1039D0008848824501DC1AD1CDB106B02846BDE841
:1039E000F04DFFF7BEBF844A844B2846FCF72DFDFF
:1039F00007460E46824A834B28462146FCF725FDA2
:103A000006B03A463346BDE8F04DFCF777BC0120DE
:103A1000FFF7CAFF06B0BDE8F04DFFF7A7BF7A4831
:103A2000824542DABAF1795F0BDA2846FFF730FFB8
:103A3000042808BFFFF7A0FF284606B02146BDE8CE
:103A4000F08D2A460B461046FCF7FFFC83460246E3
:103A50006E480E460B4606217844FFF72DFF5A4666
:103A60003346FCF7F2FC804669488A465A4633469C
:103A700004217844FFF720FF5A463346FCF7E5FC63
:103A800000223B46FCF73AFC02460B4640465146B4
:103A9000FCF76DFE2A462346FCF7D7FC06B02A4603
:103AA0002346BDE8F04DFCF729BC284624F0004130
:103AB00000223D463B46FCF7C5FC4FF0FF32FCF7C9
:103AC000C5FE0646024653480F460B46062178447B
:103AD000FFF7F2FE32463B46FCF7B7FCCDE90001AA
:103AE0004D4832463B4604217844FFF7E5FE324616
:103AF0003B46FCF7AAFC00222B46FCF7FFFB834663
:103B000002913046394600F0F9FB804643480D46A5
:103B1000504517DCDDE900015A46029BFCF727FE01
:103B200042462B46FCF791FC42462B46FCF7E6FB4F
:103B30000122FCF78BFE304A304BFCF780FC304A08
:103B4000304B4CE04FF0000A52460B464046FCF723
:103B5000D5FBCDE9031052462B4610461946FCF71B
:103B600074FC32463B46FCF76DFCDDE90332FCF7A2
:103B7000FEFD06460F46DDE900015A46029BFCF7B2
:103B8000F6FD83460091012230463946FCF75EFE81
:103B9000194A1A4BFCF756FC06460F4601224046CE
:103BA0002946FCF753FE5A46009BFCF74EFC324672
:103BB0003B46FCF744FC06460F4601225046294688
:103BC000FCF744FE0E4DDFF858802A464346FCF7CA
:103BD00039FC32463B46FCF735FC2A464346FCF7A7
:103BE00031FC002CD8BF81F0004106B0BDE8F08D5B
:103BF0000000F03F0000F07F075C143326A6913CE4
:103C0000182D4454FB21F93F0000E03F1409000047
:103C10002A0900009E080000B40800003333EF3F7B
:103C2000FB21E93F2DE9F84F04460D4621F0004005
:103C300000917349814211DC7249884201DC06D14E
:103C40002CB120462946BDE8F84FFFF78ABE6E48E2
:103C5000002DCCBF6D496E49BDE8F88F6D4981429A
:103C600011DD6D498142D8BF4FF0FF366DDD204632
:103C70002946FFF70DFE042808BFFFF77DFE20460A
:103C80002946BDE8F88F6549654F25F0004581421A
:103C900033DD6449814219DD002632464FF080430E
:103CA00020462946FCF72AFB80468A460122204608
:103CB0002946FCF7CBFD00223B46FCF7C0FB424601
:103CC0005346FCF754FD04460D463EE00126002213
:103CD000BA463B4620462946FCF710FB80460F4675
:103CE0000022534620462946FCF7A9FB42463B46A4
:103CF000FCF73DFD04460D4627E04B4981421BDDA4
:103D0000DFF828A102260022534620462946FCF768
:103D10009CFB00223B46FCF7F1FA80460F4600224E
:103D2000534620462946FCF78AFB42463B46FCF7B1
:103D30001EFD04460D4608E0032622462B460020C1
:103D40003B49FCF714FD04460D4622462B4610461F
:103D50001946FCF77AFB8B46824602460B46FCF777
:103D600074FB07460246334888460B4606217844D2
:103D7000FFF7A2FD52465B46FCF767FB82462E48E2
:103D80008B463A46434605217844FFF795FD3A466F
:103D90004346FCF75AFB02460B46002E5046594656
:103DA0000CDAFCF7ABFA22462B46FCF74EFB01B0CF
:103DB00022462B46BDE8F04FFCF744BBFCF79EFAC9
:103DC00022462B46FCF741FB1C4A7A4402EBC60311
:103DD000D3E90023FCF733FB22462B46FCF72FFBED
:103DE000174A7A4402EBC603D3E90023FCF72AFB07
:103DF000009A002AB8BF81F00041BDE8F88F0000AA
:103E0000000010440000F07F182D4454FB21F93FBE
:103E1000FB21F9BF0000DC3F0000203E0000F33F23
:103E20000000F03F0000E63F008003400000F83F44
:103E30000000F0BFB6060000740600001206000085
:103E4000DA0500002DE9F04D9446CCF1000423F092
:103E500000464CEA0404524F46EAD4749A46884617
:103E600021F00042BC4206D8454240EA050442EA3D
:103E7000D474BC4204D9BDE8F04D6246FFF774BD6E
:103E8000AAF14055A5F17F6555EA0C040BD0022438
:103E900004EAAA74434DDFF810E144EAD87452EA08
:103EA000000B04D00CE0BDE8F04DFFF7BBBE002CCA
:103EB00014BF012CBDE8F08D022C30D0032C32D081
:103EC00056EA0C0B0AD0BE4220D1BA4209D126F0E4
:103ED000804622F080423346114617E000291ADB63
:103EE00025E0DFF8C8B0FB44002C04BFDBE900018B
:103EF000BDE8F08D012C02BFDBE9000181F000413B
:103F0000BDE8F08D022C0AD0032C0CD0BA4212D19D
:103F1000B8F1000F0BDA23482549BDE8F08D28469B
:103F20002449BDE8F08D28467146BDE8F08D1D4856
:103F30002149BDE8F08D921B12153C2AC4BF1948D7
:103F40001D490EDCBAF1000FBEBF12F13C0F00207C
:103F5000014606DB6246FCF70AFC21F00041FFF750
:103F600061FE002C08BFBDE8F08D012C04BF81F07C
:103F70000041BDE8F08D114A114B022C07D0FCF72F
:103F80005EFA2A46BDE8F04D0A4BFCF758BAFCF73A
:103F900056FA2A46BDE8F04D064BFCF753BA00002E
:103FA0000000F07F182D4454FB2109C06E0500006D
:103FB000FB21F9BFFB210940FB21F93F075C1433CA
:103FC00026A6A13C00B585B06846FEF75BFD044916
:103FD0000098B0FBF1F00349086005B000BD000097
:103FE00040420F001400002030B50446FDF704FDE8
:103FF000054600BFFDF700FD401B04EB4401C1EB8B
:10400000C411B0EBC10FF5D330BD2DE9F04104462A
:104010000D4621692068FCF7A9F860606169606855
:10402000FCF7A4F8064631466068FCF729F9E06021
:104030002846A168FCF7ECF80746E168FCF7EEF8C3
:104040000646A168FCF792F8A0604FF07E50E16848
:10405000FCF7DEF806466168FCF7E0F82060BDE892
:10406000F0810000FFF7AEFF4FF4A060FEF724FCE4
:10407000174800684FF47A72B0FBF2F1B1F1807F1B
:1040800000D31DE021F07F40401E4FF0E022506140
:1040900050170F22002807DA13071D0E0D4B00F0F2
:1040A0000F04241F1D5503E013071C0E0A4B1C545C
:1040B00000BF00204FF0E02290610720106100BF98
:1040C000FCF74FFC03E0FCF779FEFEF701FCFAE792
:1040D0000000002018ED00E000E400E010B502460A
:1040E00000200EE0002352F82040E36052F8204008
:1040F000A36052F82040A36252F820406360431C42
:10410000D8B28842EEDB10BD2DE9F05F04460E46C2
:10411000616A2068FCF77CF8054631462846FCF7C2
:104120007DF88046E168FCF721F8E060A168284648
:10413000FCF76EF880463146FCF7A2F80746A06906
:104140003946FCF76BF88146E1686069FCF766F870
:10415000824620692946FCF761F883465146FCF700
:1041600005F880464946FCF701F8A062A560BDE865
:10417000F09F00004FF080400F4908610F4908612F
:104180004FF081400E49086100200B4948610B49FE
:1041900048610B4948610B480749886107498861B4
:1041A0004FF07C5006498861074808490861084972
:1041B00008610849086170471C0100205001002077
:1041C000840100200AD7A33D0000E040B801002090
:1041D000EC0100202002002042488088B0F5966F54
:1041E00007DA4048C088B0F5966F02DAFF203E49F2
:1041F00008703D480078042834D006DC012809D036
:10420000022811D0032866D122E01F2834D0FF28CD
:1042100061D14FE03348808840F27E41884202DA23
:104220000220314908705AE02E488088B0F5E16FCD
:104230000DDD2E480078401C2C4908700846007897
:10424000052804DD0020087003202749087046E097
:104250002448808840F27E41884202DA04202249C4
:1042600008703CE00120224908701F201E49087098
:1042700000202049887032E01A48808840F21541B9
:1042800088420CDA1C4801880088401C1A4A1080B9
:10429000B1F5FA6F0DDDFF201349087009E01448ED
:1042A000007818B9FF201049087002E00020124978
:1042B000088014E002200F49887000200E49088011
:1042C0004FF496700B4908800020094908700120BE
:1042D0000549087003E0FF200349087000BF00BFD4
:1042E00070470000080100209C000020A000002072
:1042F000260000203C0000209E0000202DE9F04117
:1043000006460F46FCF7DCFA04000D4618BF0120F4
:10431000284320F00040C0F17F6000F1E040C00F72
:104320000ED0301C18BF0120384320F00040C0F1EF
:104330007F6000F1E040C00F04BF0120FFF734FBB5
:1043400020462946BDE8F08111223344551122331D
:1043500044550000DB0F4940E12E654235FA8E3CA2
:10436000F6FF793D2E9E8B3AD80FC93F0000000022
:10437000555555555555C53F7D6FEB0312D6D4BFE6
:104380005544880E55C1C93F3B8F68B52882A4BFEC
:1043900088B20175E0EF493F09F7FD0DE13D023FAD
:1043A0004B2D8A1C273A03C0C88A599CE52A004035
:1043B00059018D1B6C06E6BF82922EB1C5B8B33F82
:1043C0004FBB610567ACDD3F182D4454FB21E93F2D
:1043D0009BF681D20B73EF3F182D4454FB21F93F1C
:1043E000E2652F227F2B7A3C075C143326A6813CA2
:1043F000BDCBF07A8807703C075C143326A6913C4D
:10440000C4EB98999999C9BF711623FEC671BCBFB8
:104410006D9A74AFF2B0B3BF9AFDDE522DDEADBF20
:104420002F6C6A2C44B4A2BF0D5555555555D53F38
:10443000FF8300922449C23F6E204CC5CD45B73F53
:10444000513DD0A0660DB13FEB0D76244B7BA93FCB
:1044500011DA22E33AAD903F0000000000000000B6
:104460008044000800000020F000000088390008A7
:1044700070450008F0000020600600009839000830
:1044800000A24A0400000000000000000102030432
:1044900006070809000000000000000000000000FE
:1044A0000000000000000000000000000102030402
:1044B0000102030406070809020406082C01020091
:1044C00000000000F00000200AD7A33C000000001C
:1044D00000000000000000006F12833A0C020B3F46
:1044E0000AD7A33C0000000000000000000000000C
:1044F0006F12833A0C020B3F0AD7A33C0000000066
:1045000000000000000000006F12833A0C020B3F15
:10451000000000AAAAEF0200000000000100000055
:10452000000000001C010020500100208401002038
:10453000EC010020B80100202002002054020020DD
:1045400088020020000000000000000001010000BF
:1045500000000000CDCC4C3F52499D390000803F07
:10456000000000000000000000000000000000004B
:04000005080000ED02
:00000001FF
