:020000040800F2
:1000000058070020010100085D200008891400083D
:10001000151B0008790A00080933000800000000D9
:10002000000000000000000000000000F9280008A7
:100030009B0A00080000000035230008E52900089D
:100040001B0100081B0100081B0100081B01000820
:100050001B0100081B0100081B0100081B01000810
:100060001B0100081B0100081B0100081B01000800
:100070001B0100081B0100081B0100081B010008F0
:100080001B0100081B0100081B0100081B010008E0
:100090001B0100081B0100081B0100081B010008D0
:1000A0001B0100081B0100081B0100081B010008C0
:1000B0001B010008812B00081B0100081B01000820
:1000C0001B0100081B0100081B0100081B010008A0
:1000D0001B0100081B0100081B0100087930000803
:1000E0001B0100081B0100081B010008DFF80CD0F1
:1000F00000F0BEFB00480047393B000858070020CD
:100100000648804706480047FEE7FEE7FEE7FEE7B1
:10011000FEE7FEE7FEE7FEE7FEE7FEE7F52900085B
:10012000ED00000840EA01039B0703D009E008C97D
:10013000121F08C0042AFAD203E011F8013B00F8AC
:10014000013B521EF9D27047D2B201E000F8012BF8
:10015000491EFBD270470022F6E710B513460A4647
:1001600004461946FFF7F0FF204610BDF0B480EAC0
:100170000102D40F4200B2EB410F02D20246084600
:1001800011464A0042D0C30DDDB2C1F3C752AD1AC9
:10019000202D35DAC1F3160141F4000204B15242B8
:1001A000C5F1200602FA06F12A411044B3EBD05FF4
:1001B00023D0C4B1012DA0EBC35009DCF0BC4FF03B
:1001C000004202EAC352DBB200F5000000F03EBA82
:1001D000400000F1807000EBC350A0F1807040EA55
:1001E000D170490009E0490841EAC071A0EBC35051
:1001F00000F50000400800EBC350F0BC00F01DBA51
:100200006142012202EB4101001BF6E7F0BC70479E
:1002100081F00041AAE780F00040A7E780EA0102F0
:1002200010B502F00043400022D04A001FD0010E5A
:1002300001EB1261C0F35600C2F3560240F4000015
:1002400042F40002A0FB022000047F39140400D015
:10025000401C50EA124001D44000491EC2B20C06B4
:1002600004EBD010401C4008802A02D003E000209C
:1002700010BD20F00100002900DA0020184310BD55
:1002800030B480EA010202F0004530F0004221F073
:10029000004013D090B1C30DD40DC2F31601C0F3CA
:1002A0001600E41A41F4000140F400027D3491424A
:1002B00001D3641C00E04900002C02DA30BC0020AD
:1002C00070474FF400000023914201D3891A034381
:1002D00040084FEA4101F7D151B1914202D14FF0AC
:1002E000004105E002D24FF0010101E06FF0010191
:1002F00003EBC450284430BC00F09FB92DE9FE4FF9
:10030000804681EA0300C00F0C46009021F00041B6
:1003100023F00045B8EB0200A94105D24046214632
:1003200090461C460B46024623F00040104347D03F
:10033000270DC7F30A00C3F30A510290401A019037
:1003400040286BDAC3F3130040F4801B00989246F8
:1003500020B10023D2EB030A63EB0B0B0198594643
:10036000C0F14002504600F047F906460D4650469F
:100370005946019A00F04FF910EB08006141002442
:1003800087EA115284EAE7731A4340D0009A62B3B5
:10039000019A012A4FEA075215DC001B61EB0201AA
:1003A0004FF0004202EA0752CDE90042001C41F53D
:1003B000801132462B4600F086F903B0BDE8F08F7D
:1003C00040462146F9E7001B61EB0201001C41F5A4
:1003D000801300185B412018A2F5001747EB0301BA
:1003E00040EAD570B6196D4111E06D084FEA360646
:1003F00045EAC0754FEA0752001B61EB0201001C81
:1004000041F5801149084FEA300000195141324648
:100410002B4603B0BDE8F04F00F046B9009801222A
:1004200040000023D0EB020263EBE073009821460A
:100430004FEAE074B8EB000061EB0401E9E783F0F8
:1004400000435BE781F0004158E72DE9FE4F81EA68
:10045000030404F0004421F0004100944FF0000B2D
:1004600023F0004350EA01045ED052EA03045BD05B
:10047000C3F30A54C1F30A552C44A4F2F334019493
:10048000A0FB0254C1F3130141F48011C3F3130321
:1004900043F4801301FB024400FB034E840A970AD5
:1004A00044EA815447EA8357A4FB076802958D0A02
:1004B00005FB07854FEA932C04FB0C542705029D8E
:1004C0004FEA065847EA1637B5EB08056EEB070CFE
:1004D000870E920E47EA811742EA8312A7FB0201B8
:1004E000B6EB0B0164EB00042B0D43EA0C335E18F2
:1004F00044EB1C50DA465146E7FB0201C5F31304F6
:100500004FEA0B3343EA14534FEA0432019C43EAA7
:100510000603A4F10C040294009CCDE900B400F0A1
:10052000D2F803B0BDE8F08F00200146F9E7C10F13
:1005300080EAE0700844CA079623002100F086B8DC
:1005400000F0004220F00040C10DC0F3160040F45E
:1005500000007F2901DA00207047962903DCC1F1F1
:100560009601C84001E096398840002AF4D0404204
:10057000704700F0004230F000400AD0C10D01F594
:100580006071C0F3160042EA0151C20840071143EE
:10059000704700200146704701F0004330B421F05D
:1005A000004150EA010206D00A0DA2F56072C1F3C3
:1005B0001301002A02DC30BC00207047440F44EADB
:1005C000C104C100E01830BC00EBC25000F035B8E7
:1005D000002801DBC0F10040002901DBC1F100412E
:1005E00081427047002801DBC0F10040002901DB97
:1005F000C1F1004188427047202A04DB203A00FA0A
:1006000002F1002070479140C2F1200320FA03F369
:10061000194390407047202A06DBCB17203A41FA55
:1006200002F043EAE07306E041FA02F3D040C2F17F
:10063000200291400843194670470029A8BF70471F
:10064000401C490008BF20F00100704710B4B0FA08
:1006500080FC00FA0CF050EA010404BF10BC7047A3
:1006600049B1CCF1200421FA04F411FA0CF118BFBD
:10067000012121430843A3EB0C01CB1D4FEA00618C
:100680004FEA102042BF002010BC704700EBC3505F
:1006900010440029A4BF10BC7047401C490008BF8B
:1006A00020F0010010BC704710B5141E73F1000457
:1006B00008DA401C41F1000192185B411A4301D154
:1006C00020F0010010BD2DE9F04D92469B4611B17E
:1006D000B1FA81F202E0B0FA80F220329046FFF7E0
:1006E0008BFF04460F4640EA0A0041EA0B015346DD
:1006F0005A46084313D0114653EA010019D0C8F1F5
:100700004002504600F0C6F805460E46504659468F
:100710004246FFF771FF084305D0012004E0204660
:100720003946BDE8F08D0020054346EAE0762C43CB
:1007300037430A986305E40AA0EB08000022FD0A8B
:1007400044EA47540A3002D500200146E9E7010592
:1007500010196941DDE9084500196941BDE8F04D0E
:10076000A2E72DE9F04D81EA030404F0004B21F0EB
:10077000004514464FF0000A23F0004150EA0502FC
:1007800020D054EA01021DD0C5F30A570246C5F332
:100790001303C1F31300C1F30A5640F4801543F468
:1007A0008013A7EB0608101BD64608F2FD3873EB42
:1007B000050002D308F1010801E092185B41B8F18D
:1007C000000F03DA00200146BDE8F08D00204FF451
:1007D0008011064684460EE0171B73EB050705D310
:1007E000121B63EB050306434CEA010C49084FEA70
:1007F000300092185B4150EA0107EDD152EA030044
:1008000012D082EA040083EA0501084305D0101BD8
:10081000AB4106D20122002306E000224FF0004344
:1008200002E06FF0010253101AEB06004CEB085186
:1008300010EB0A0041EB0B01BDE8F04DFFF734BFB0
:1008400070B521F0004303430CD0C1F30A550024D6
:10085000D5EB040564EB0403D617AD1AB34102DBF4
:100860000020014670BD201841EB025170BD000010
:10087000064C074D06E0E06840F0010394E80700ED
:1008800098471034AC42F6D3FFF734FC303F0008F1
:10089000503F0008202A04DB203A21FA02F0002110
:1008A000704721FA02F3D040C2F120029140084380
:1008B000194670472DE9F04D00231A461B1A8A414C
:1008C00003DB00200146BDE8F08DC1F30A52C1F3FD
:1008D000130141F480154FF0000BD10702D100182D
:1008E0006D41521E0027044640F2FF11384601EBCD
:1008F000620A3E468046024600204FF48011FFF710
:10090000C9FFC2197141BB1846EB0100B4EB030CDF
:1009100075EB000C04D3E41A65EB000517460E4690
:10092000241908F101006D4180463428E3DDF919EE
:1009300046EB0600091BA84103D24FF0FF321346D5
:1009400001E0002213461BEB070046EB0A51BDE80D
:10095000F04DFFF7A9BE000010B501F015F803F047
:1009600071F902F037FB07A002F0D0FC01F0B6F8F5
:1009700001F028FB01F076FC02F06CF802F0CEF8F2
:1009800010BD0000555341525420496E69742053E4
:10099000756363657373210D0A00000010B504468A
:1009A00094F9020011281FD008DC012839D0022850
:1009B00038D0032853D0102852D108E0122820D074
:1009C00013282BD014282AD0152849D128E02648EE
:1009D000007820F00100401C234908701222211DDC
:1009E0002248FFF79FFB3CE01222211D2048FFF721
:1009F00099FB1D48007820F00200801C1A490870FD
:100A00002FE01222211D1B48FFF78CFB16480078AF
:100A100020F00400001D1449087022E021E020E0CD
:100A20001FE01EE02079212813D004DC012807D024
:100A3000022811D10CE0A0280CD0A1280CD10AE08A
:100A40000948007820F0400040300749087004E071
:100A500003E002E001E000E000BF00BF01E000E0D1
:100A600000BF00BF10BD000090000020D802002091
:100A7000EA020020FC02002000BFFEE770B5064637
:100A80000C4615462946204603F0A6F8A06A3060B9
:100A90002946304603F0A0F870BD704770B5044693
:100AA00042480078012806D00B280BD01F2817D009
:100AB000FF286FD165E03E48007810B10B203B491C
:100AC00008706BE008213B4803F070F800203A49B9
:100AD00048620860394988601F20344908705DE029
:100AE0003749B1F90600FFF722FD05463548016890
:100AF0002846FFF793FB344948623149B1F90800B1
:100B0000FFF715FD05462F4801682846FFF786FBCD
:100B10002E4948622A49B1F90A00FFF708FD054647
:100B2000284801682846FFF779FB2949486223488D
:100B300040682849486221480068274948621F48A0
:100B400080681D4948622146234803F045F8224841
:100B5000806A1D49086021461B4803F03DF8214684
:100B60001C4803F039F81B48806A18490860214680
:100B7000164803F031F822460F491548FFF77EFF6B
:100B80000CE008210B4803F011F801200749087018
:100B900004E0FFE7FF200549087000BF00BF0448DC
:100BA000007810B9FF200149087070BDCC0000200A
:100BB00026000020A40000202402002000010020C4
:100BC000F4000020303E00082001002054010020E5
:100BD00088010020BC010020F00100202DE9F04137
:100BE000024600250026002000230024002791F85B
:100BF00003C00CF00F0591F803C00CF0100CBCF111
:100C0000000F03D091F802C04CEA050591F800C02E
:100C1000BCF1000F31D0146800202BE04FF0010C24
:100C20000CFA00F3B1F800C00CEA03069E4220D192
:100C300083004FF00F0C0CFA03F7BC4305FA03FCDA
:100C40004CEA040491F803C0BCF1280F06D14FF020
:100C5000010C0CFA00FCC2F814C00AE091F803C0C1
:100C6000BCF1480F05D14FF0010C0CFA00FCC2F8A2
:100C700010C0401C0828D1D31460B1F800C0BCF1EA
:100C8000FF0F34DD546800202EE000F1080C4FF017
:100C9000010808FA0CF3B1F800C00CEA03069E4202
:100CA00021D183004FF00F0C0CFA03F7BC4305FA77
:100CB00003FC4CEA040491F803C0BCF1280F05D1F1
:100CC00000F1080C08FA0CF8C2F8148091F803C07F
:100CD000BCF1480F07D100F1080C4FF0010808FAE9
:100CE0000CF8C2F81080401C0828CED35460BDE830
:100CF000F08101617047000007B5A4B04FF07C514E
:100D00002698FFF78BFA1190FE4880680D90FD48F9
:100D100000680C900D99FFF781FA0F90F948C068B0
:100D20000D90F84840680C900D99FFF777FA0E90F7
:100D30000F99FFF76DFA4FF080411090FFF76EFAB0
:100D40002090F048C0680D90EE4880680C900D9996
:100D5000FFF764FA0F90EB4840680D90E94800688F
:100D60000C900D99FFF75AFA0E900F99FFF7FEF9C4
:100D70004FF080411090FFF751FA2190E1488068D0
:100D80000C90E04880680B900C99FFF747FA0E90A2
:100D9000DC4840680C90DB4840680B900C99FFF7EA
:100DA0003DFA0D900E99FFF7E1F94FF080410F9059
:100DB000FFF734FA4FF07E511090FFF72CFA229093
:100DC000D148B0F904000B90FFF7B1FB0D90CE486D
:100DD000B0F904000B90FFF7AAFB0C900D99FFF7F8
:100DE0001DFA0F90C848B0F902000990FFF79FFB69
:100DF0000B90C548B0F902000990FFF798FB0A90E4
:100E00000B99FFF70BFA0D90BF48B0F9000009905D
:100E1000FFF78DFB0B90BC48B0F900000990FFF77D
:100E200086FB0A900B99FFF7F9F90C900D99FFF7E3
:100E30009DF90E900F99FFF799F9109001F00EFBB4
:100E4000B24908602498B0F900000F90FFF76FFBDB
:100E50001090AE4801681098FFF7E0F91D902498B3
:100E6000B0F902000F90FFF762FB1090A7480168ED
:100E70001098FFF7D3F91E902498B0F904000F9052
:100E8000FFF755FB1090A14801681098FFF7C6F9CD
:100E90001F9021980E901F980D900E99FFF7BEF9A4
:100EA000109022980E901E980D900E99FFF7B6F9AB
:100EB0000F901099FFF7ACF9179022980E901D989B
:100EC0000D900E99FFF7AAF9109020980E901F9898
:100ED0000D900E99FFF7A2F90F901099FFF798F96E
:100EE000189020980E901E980D900E99FFF796F985
:100EF000109021980E901D980D900E99FFF78EF985
:100F00000F901099FFF784F9199017980F90804867
:100F100001680F98FFF782F910907E48006801463B
:100F20000F901098FFF722F97A49086018980F90EF
:100F3000774801680F98FFF771F91090754840687D
:100F400001460F901098FFF711F9724948601998FF
:100F50000F906F4801680F98FFF760F910906D4887
:100F6000806801460F901098FFF700F96949886082
:100F7000179801460D9068480068FFF74FF90F90E9
:100F80002498B0F906000C90FFF7D1FA0D90634851
:100F900001680D98FFF742F90E900F99FFF7E6F8F8
:100FA00010905C48006801460F901098FFF7DEF83B
:100FB0001A90189801460D9057480068FFF72EF9CF
:100FC0000F902498B0F908000C90FFF7B0FA0D903C
:100FD000524801680D98FFF721F90E900F99FFF71D
:100FE000C5F810904B48406801460F901098FFF7E5
:100FF000BDF81B90199801460D9047480068FFF70F
:101000000DF90F902498B0F90A000C90FFF78FFAB1
:101010000D90424801680D98FFF700F90E900F9966
:10102000FFF7A4F810903B48806801460F90109895
:10103000FFF79CF81C901C980D903248C0680C90EB
:101040000D99FFF7EBF80F901B980B902D488068D7
:101050000A900B99FFF7E2F80D902A48406880F05B
:1010600000400B901A9801460A900B98FFF7D6F8AB
:101070000C900D99FFF7CCF80E900F99FFF7C8F878
:1010800010901199FFF7CAF816901C980D901D4802
:1010900080680C900D99FFF7C1F80F901B980B908A
:1010A0001848C0680A900B99FFF7B8F80D901A9885
:1010B0000B90144800680A900B99FFF7AFF80C905A
:1010C0000D99FFF7A5F80E900F99FFF74FF81090C4
:1010D0001199FFF7A3F815901C980D9009484068E6
:1010E0000C900D99FFF79AF80F901B980B900548FC
:1010F00000680A900B99FFF791F80D901A980B90E1
:1011000000480DE0DC000020F4000020D0000020AA
:10111000D800002048030020D4000020343E0008FE
:10112000C0680A900B99FFF779F80C900D99FFF7BA
:101130001DF80E900F99FFF76BF810901199FFF7BB
:101140006DF814901C980D90B94800680C900D999A
:10115000FFF764F80F901B980B90B54840680A9011
:101160000B99FFF75BF80D90B148806880F0004064
:101170000B901A9801460A900B98FFF74FF80C90C5
:101180000D99FEF7F3FF0E900F99FEF7EFFF109009
:101190001199FFF743F81390A5480068109016992D
:1011A000FEF7E4FFA24908600846406810901599D0
:1011B000FEF7DCFF9E49486008468068109014994D
:1011C000FEF7D4FF9A4988600846C06810901399CA
:1011D000FEF7CCFF9649C8600846C0680D900846E7
:1011E000C0680C900D99FFF719F80F90904880682F
:1011F0000B908F4880680A900B99FFF70FF80D90BD
:101200008B48406809908A48406808900999FFF720
:1012100005F80B908648006809908548006808909A
:101220000999FEF7FBFF0A900B99FEF79FFF0C90C0
:101230000D99FEF79BFF0E900F99FEF797FF109008
:1012400001F00CF912907A48006810901299FEF79C
:10125000E5FF774908600846406810901299FEF74C
:10126000DDFF734948600846806810901299FEF7C8
:10127000D5FF6F4988600846C06810901299FEF744
:10128000CDFF6B49C8602498B0F90A000E90FFF7B3
:101290004EF90F90674801680F98FEF7BFFF109056
:1012A00065491098FFF79EF904D364491098FFF739
:1012B0008FF90DD226991098FEF7B0FF0F90259860
:1012C000806801460E900F98FEF750FF25998860C0
:1012D0005B480068FFF74DF9CDE90C0154484068C0
:1012E000014603904FF08040FEF798FF049050486D
:1012F000C068014603900498FEF790FF06904C48A2
:101300000068014603904FF08040FEF787FF04908D
:1013100047488068014603900498FEF77FFF0590D8
:101320000699FEF775FF0790FFF723F9CDE908014D
:1013300002F098F8CDE90A01DDE90C23FFF785F802
:10134000CDE90E01FFF728F9259948603C4800686F
:10135000FFF70FF9CDE90C0135488068014601908F
:101360004FF08040FEF75AFF0290314880680146F6
:1013700001900298FEF752FF04902D484068014604
:1013800000904FF08040FEF749FF019028484068E8
:10139000014600900198FEF741FF4FF07E51029008
:1013A000FEF739FF03900499FEF732FF0590FFF72F
:1013B000E0F8CDE908011E480068014601904FF0B1
:1013C0008040FEF72BFF02901948406801460190CB
:1013D0000298FEF723FF04901548806801460190AB
:1013E0004FF08040FEF71AFF02901148C068014696
:1013F00001900298FEF712FF03900499FEF7B6FEE3
:101400000590FFF7B6F8CDE90601DDE9082302F003
:1014100071FACDE90A01DDE90C23FFF716F8CDE9F1
:101420000E01FFF7B9F82599086027B000BD00004C
:10143000DC000020303E000800004040000040C0BA
:10144000283E000800BF0E4801684FF0E020826986
:101450000B4800688142F6D10A48006800EB40035F
:10146000C3EBC010C2EBC000064B1B68B0FBF3F02F
:1014700001EB4103C3EBC11300EBC3007047000055
:101480001C0000201400002000BFFEE708B540202B
:10149000304908600120009004E09DF80000401EE3
:1014A000C0B200909DF800000028F6D180202949A4
:1014B00008600120009004E09DF80000401EC0B2CA
:1014C00000909DF800000028F6D140202149091F16
:1014D00008600120009004E09DF80000401EC0B2AA
:1014E00000909DF800000028F6D10120009004E053
:1014F0009DF80000401EC0B200909DF8000000283A
:10150000F6D10120009004E09DF80000401EC0B21A
:1015100000909DF800000028F6D10120009004E022
:101520009DF80000401EC0B200909DF80000002809
:10153000F6D14020074908600120009004E09DF8A2
:101540000000401EC0B200909DF800000028F6D1B7
:1015500008BD0000140C014008B540203049086067
:101560000120009004E09DF80000401EC0B20090F1
:101570009DF800000028F6D180202949091F086045
:101580000120009004E09DF80000401EC0B20090D1
:101590009DF800000028F6D140202149091F08606D
:1015A0000120009004E09DF80000401EC0B20090B1
:1015B0009DF800000028F6D10120009004E09DF87D
:1015C0000000401EC0B200909DF800000028F6D137
:1015D0000120009004E09DF80000401EC0B2009081
:1015E0009DF800000028F6D10120009004E09DF84D
:1015F0000000401EC0B200909DF800000028F6D107
:101600004020074908600120009004E09DF8000098
:10161000401EC0B200909DF800000028F6D108BD21
:10162000140C014008B50821002080222C4B1A60C0
:101630004CE04206100E4022294B1B1D1A6001226D
:10164000009204E09DF80020521ED2B200929DF854
:101650000020002AF6D10122009204E09DF800202B
:10166000521ED2B200929DF80020002AF6D14022EC
:101670001B4B1A600122009204E09DF80020521ECC
:10168000D2B200929DF80020002AF6D101220092E9
:1016900004E09DF80020521ED2B200929DF8002076
:1016A000002AF6D10122009204E09DF80020521E8B
:1016B000D2B200929DF80020002AF6D1084A083ADA
:1016C000126802F080020AB140F001000A1EA1F186
:1016D0000103D9B2ADD14022014B1B1D1A6008BDD8
:1016E000100C014008B5082150E040222C4B1A6034
:1016F0000122009204E09DF80020521ED2B2009216
:101700009DF80020002AF6D100F0800222B180224C
:10171000234B1B1F1A6002E08022214B1A604206F5
:10172000100E0122009204E09DF80020521ED2B259
:1017300000929DF80020002AF6D14022184B1B1F72
:101740001A600122009204E09DF80020521ED2B2DD
:1017500000929DF80020002AF6D10122009204E0B8
:101760009DF80020521ED2B200929DF80020002A5F
:10177000F6D10122009204E09DF80020521ED2B260
:1017800000929DF80020002AF6D100BF0A1EA1F1A8
:101790000103D9B2A9D14022014B1A6008BD000053
:1017A000140C014008B580202249086040200860E0
:1017B0000120009004E09DF80000401EC0B200909F
:1017C0009DF800000028F6D11A480838006808B9CA
:1017D000012000E0002000F0800008B1012008BDD9
:1017E00080201449091D08600120009004E09DF844
:1017F0000000401EC0B200909DF800000028F6D105
:101800000C480838006800F0800008B10120E6E7C5
:1018100040200849091D08600120009004E09DF85F
:101820000000401EC0B200909DF800000028F6D1D4
:1018300000BFD4E7100C014008B5402024490860DF
:101840000120009004E09DF80000401EC0B200900E
:101850009DF800000028F6D180201D490860012075
:10186000009004E09DF80000401EC0B200909DF87A
:1018700000000028F6D10120009004E09DF800004F
:10188000401EC0B200909DF800000028F6D1402014
:101890000F49091F08600120009004E09DF8000036
:1018A000401EC0B200909DF800000028F6D18020B4
:1018B0000749091F08600120009004E09DF800001E
:1018C000401EC0B200909DF800000028F6D108BD6F
:1018D000140C014008B540202A49086001200090FE
:1018E00004E09DF80000401EC0B200909DF800008A
:1018F0000028F6D180202349091F086001200090AC
:1019000004E09DF80000401EC0B200909DF8000069
:101910000028F6D140201B49091F086001200090D3
:1019200004E09DF80000401EC0B200909DF8000049
:101930000028F6D10120009004E09DF80000401E30
:10194000C0B200909DF800000028F6D10120009060
:1019500004E09DF80000401EC0B200909DF8000019
:101960000028F6D107480C38006800F0800020B14C
:10197000402004490860012008BD4020014908605A
:101980000020F9E7140C014008B50121082000F0FF
:101990009DFDC020ADF8000003208DF8020014204A
:1019A0008DF8030069460248FFF718F908BD0000EA
:1019B000000C014070B504460D460026FFF7F2FE0C
:1019C000012800D170BD2046FFF78CFEFFF782FF93
:1019D000012803D1FFF730FF0120F3E72846FFF786
:1019E00081FEFFF777FFFFF727FFFFF7DBFE611CA4
:1019F000C8B2FFF777FEFFF76DFF012803D1FFF7AD
:101A00001BFF0120DEE7FFF70DFE0646FFF7A4FDF2
:101A1000FFF712FF70B2D5E770B506460C461546C3
:101A2000FFF7C0FE012800D170BD3046FFF75AFE17
:101A3000FFF750FF012803D1FFF7FEFE0120F3E777
:101A40002046FFF74FFEFFF745FF2846FFF74AFE07
:101A5000FFF740FFFFF7F0FE0020E5E72DE9F0413A
:101A600006460F4615461C46FFF79CFE012801D18D
:101A7000BDE8F0813046FFF735FEFFF72BFF012868
:101A800003D1FFF7D9FE0120F2E73846FFF72AFE1F
:101A9000FFF720FFFFF7D0FEFFF784FE711CC8B2EE
:101AA000FFF720FEFFF716FF012803D1FFF7C4FE62
:101AB0000120DDE70CE0FFF7B5FD2870012C02D115
:101AC000FFF74AFD01E0FFF7E1FC6D1C601EC4B2A8
:101AD000002CF0D1FFF7B0FE0020C9E708B54FF0A9
:101AE00000700A4948600121082000F0EFFC40F234
:101AF0000630ADF8000010208DF8030003208DF8AB
:101B0000020069460248FFF769F808BD000001407D
:101B1000000C014000BFFEE72DE9F047994800782E
:101B200010B9FF209849087097480078012806D01E
:101B3000022811D01F2819D0FF287DD1BCE0002039
:101B40009249C8808880488008808E48007810B10B
:101B500002208D49087000BF8D48808840F24C41BA
:101B6000884202DD1F2088490870B0E088498988D2
:101B7000A1F57A70FEF7DBFC06468648816A30469E
:101B8000FEF7F4FA0546FEF7DBFC04B280488088D5
:101B900040F21541884206DA00207C49C8808880DE
:101BA0004880088093E0002C01DA002006E0B4F5BC
:101BB000617F02DD4FF4617000E020467349C88008
:101BC000888048800880744A916A744A906AFEF757
:101BD0001FFB80467248816A4046FEF719FB0646A5
:101BE0006A49B1F90000FEF7A2FC07463146FEF74C
:101BF000BDFA0546FEF7A4FC00B264490880664AB7
:101C0000916A664A906AFEF7B1FA80466448816A32
:101C10004046FEF7ABFA06465C49B1F90200FEF712
:101C200086FC07463146FEF7A1FA0546FEF788FC1A
:101C300000B25649488000E048E05848806A80F089
:101C400000485548816A4046FEF790FA07465448D6
:101C5000816A3846FEF7DCFA06464C49B1F90400C1
:101C6000FEF765FC81463146FEF780FA0546FEF731
:101C700067FC00B2454988804848806A80F0004887
:101C80004548816A4046FEF7C3FA07464448816AE0
:101C90003846FEF76BFA06463C49B1F90600FEF7F6
:101CA00046FC81463146FEF761FA0546FEF748FCE0
:101CB00000B23649C8800AE000203449C8808880D4
:101CC0004880088001203049087000E000BF00BF54
:101CD0002E48B0F90000002801DA00200BE02B4864
:101CE000B0F90000B0F57A7F02DD4FF47A7002E0BF
:101CF0002648B0F900004FF0804188862348B0F9AB
:101D00000200002801DA00200BE02048B0F90200B0
:101D1000B0F57A7F02DD4FF47A7002E01B48B0F92B
:101D200002004FF0804108871848B0F904000028ED
:101D300001DA00200BE01548B0F90400B0F57A7F15
:101D400002DD4FF47A7002E01048B0F904004FF061
:101D5000804188870D48B0F90600002801DA00208C
:101D60000BE00A48B0F90600B0F57A7F02DD4FF4C7
:101D70007A7002E00548B0F906000A490880BDE81B
:101D8000F087000026000020CD000020C4000020C5
:101D90000C010020580200205401002020010020E6
:101DA00088010020400000402DE9FE4F06236A46CE
:101DB0003B21D020FFF752FE06230DF106024321FE
:101DC000D020FFF74BFE002458E0012000EB440038
:101DD0001DF800001DF8141040EA0120294931F8CF
:101DE0001410401A00B22849096821F81400032C85
:101DF0001BDA2549096831F91400FEF798FB0546FE
:101E000004EB4401214A02EBC100294601F068FEBF
:101E100004EB44011D4A02EBC1018868FEF790FB08
:101E200000B21949096821F81400022C24DDE01ED3
:101E3000C5B2DFF85C801449096831F91400FEF777
:101E400076FB82464146FEF7E9F90746114951F80B
:101E500025001149FEF7E2F981463946FEF786F979
:101E60000C4941F825000646FEF76AFB00B2064918
:101E7000096821F8140000BF601CC4B2062CA4DB62
:101E8000BDE8FE8FC0020020440000204800002072
:101E90009A99193ECC0200209A99593FF0B58BB01F
:101EA000182105A8FEF757F91E25052677420020C0
:101EB00003900490404800210160416081604FF42C
:101EC00000503D498880002201213C4800F0CAFEB4
:101ED0003BE000BF0A2001F0DFFDFFF765FF0024B3
:101EE00016E037480168E01C31F8100003A931F80A
:101EF0001410401A00B201A921F8140030480168FA
:101F0000E01C31F8100003A921F81400601C04B291
:101F1000032CE6DBBDF904000528DBDCBDF9040079
:101F200010F1050FD6DBBDF906000528D2DCBDF99E
:101F3000060010F1050FCDDBBDF908000528C9DC4E
:101F4000BDF9080010F1050FC4DB281EA5F1010141
:101F5000CDB2BED1002417E0FFF726FF642C11DBC1
:101F600000200CE005A951F82010154A126832F93A
:101F70001020114405AA42F82010411CC8B20628BE
:101F8000F0DB00BF601C04B2B4F5B27FE4DB0024D8
:101F900009E005A850F82400001200B2064921F813
:101FA0001400601C04B2062CF3DB01221146034826
:101FB00000F058FE0BB0F0BDC0020020000400404D
:101FC0004400002010B500244FF40070224908603E
:101FD000401008600220091F08600420086000BF4C
:101FE00080226B21D020FFF717FDC4B21E2001F024
:101FF00053FD02221921D020FFF70EFD2044C4B268
:1020000003226B21D020FFF707FD2044C4B2032236
:102010001A21D020FFF700FD2044C4B218221B2152
:10202000D020FFF7F9FC2044C4B209221C21D020A3
:10203000FFF7F2FC2044C4B2002CD1D17521D0208E
:10204000FFF7B8FCC4B2682C01D0012010BDFFF727
:1020500025FF0020FAE70000140C01407047000043
:102060001FB510A103C9CDE90201052202A9302044
:1020700000F0BEF805226946102000F067F8002441
:1020800006E01DF80400A52800D003E0601CC4B2DF
:10209000052CF6DB00BF052C02D0012004B010BDDA
:1020A0000020FBE7A5A5A5A5A500000008B5012116
:1020B000042000F00BFA4FF40060ADF8000010208F
:1020C0008DF8030003208DF8020069461D48FEF7D5
:1020D00085FD0121082000F0F9F94FF48050ADF89A
:1020E000000010208DF8030003208DF802006946DF
:1020F0001548FEF773FD4FF4006012491031086077
:102100004000114910310860ADF8000048208DF8FA
:10211000030003208DF8020069460A48FEF75EFDC1
:102120004FF480510748FEF7E4FD00F053FB4FF4F5
:102130000060044914310860400003491031086010
:1021400008BD000000080140000C01402DE9F041ED
:1021500007460D4616464FF480500C490860384635
:1021600000F0AEFB8046002405E0FF2000F0A8FB55
:102170002855601CC4B2B442F7DB4FF480500349C9
:10218000091F08604046BDE8F0810000140C0140C2
:1021900070B504464FF4805007490860204600F0AF
:1021A0008FFBFF2000F08CFB05464FF48050024966
:1021B000091F0860284670BD140C014070B5044624
:1021C0000720FFF7E5FF05462946272000F032F8F3
:1021D00005F0400050B1202221466120FFF7B6FFF4
:1021E000FF21E22000F026F8002070BD0120FCE76E
:1021F0002DE9F04107460C4615464FF480500C4936
:102200000860384600F05CFB8046002605E014F8C4
:10221000010B00F055FB701CC6B2AE42F7DB4FF469
:1022200080500349091F08604046BDE8F081000066
:10223000140C014070B505460C464FF48050084917
:102240000860284600F03CFB0646204600F038FBBC
:102250004FF480500249091F0860304670BD0000ED
:10226000140C014010B5FFF721FF4FF400700A492C
:102270000860401008600220091D08600420086002
:1022800000BF00F06FFA05A001F040F8FFF7E8FE8C
:102290000128F6D010BD0000100C01404E5246320D
:1022A000344C3031205258204D6F64650D0A0000C7
:1022B00070B5002100230F22C47804B3154C2468A4
:1022C00004F4E064C4F5E064210AC1F10403CA40E7
:1022D000447804FA03F184781440214309010E4C38
:1022E0000678A155047804F01F050124AC40057858
:1022F0006D11AD0005F1E025C5F8004109E0047855
:1023000004F01F050124AC40044D0678761145F811
:10231000264070BD0CED00E000E400E080E100E04C
:1023200002490143024A1160704700000000FA05AB
:102330000CED00E07047000044480068444909681B
:10234000401A44490988884200D270473F480068D3
:102350003F4908603F48807806286FD2DFE800F0E8
:1023600026030E3243554FF400703B4908600220AB
:102370000860000208600420086063E03648001F1F
:10238000006880F002003449091F086008460068B0
:1023900080F4007008600846006880F0040008605F
:1023A0000846006880F4807008604BE04FF40070CD
:1023B0002949091D086002200860C0010860042046
:1023C00008603FE04FF40070234908600220091DB7
:1023D0000860C001091F08600420091D0860022070
:1023E0001C4988702EE002201B49091D086004204A
:1023F00008601948001F006880F400701649091F22
:102400000860C820134908801CE04FF4007012498E
:10241000091D0860401008600F48001F006880F028
:1024200002000D49091F08600846006880F004009A
:10243000086064200749088004E0FFE7012005499F
:10244000887000BF00BF00BF7FE700001C000020B5
:10245000400000203C000020100C01402DE9F05FFE
:1024600004464FF07F594FF07C512046FDF7D6FED1
:10247000824625462E460C48A0EB66063546294680
:102480005046FDF7CBFE83462946FDF7C7FE804642
:102490004946FDF7C0FE07462946FDF7BFFE054643
:1024A0002846BDE8F09F0000DF59375F29B1064A92
:1024B000D2690243044BDA6104E0034AD2698243E1
:1024C000014BDA61704700000010024029B1064A52
:1024D00092690243044B9A6104E0034A9269824381
:1024E000014B9A61704700000010024030B5002196
:1024F0000022002400232D4D6D6805F00C0121B150
:10250000042905D0082923D105E0294D056022E0E2
:10251000274D05601FE0254D6D6805F47012234DB1
:102520006D6805F48034022505EB92421CB9214DFB
:10253000554305600BE01D4D6D6805F400351DB178
:102540001C4D5543056002E0194D5543056002E0FE
:10255000174D056000BF00BF144D6D6805F0F00118
:102560000909154D6B5C0568DD4045600F4D6D68D0
:1025700005F4E061090A104D6B5C4568DD4085603B
:102580000A4D6D6805F46051C90A0B4D6B5C4568D6
:10259000DD40C560054D6D6805F44041890B074D70
:1025A0006B5CC568B5FBF3F5056130BD00100240FA
:1025B00000127A0000093D002800002038000020A9
:1025C0002DE9F0415E48FFF7F9FD00287ED1002596
:1025D0005C490880002405E05948005D2844C5B2E4
:1025E000601CC4B21F2CF7DB5548C07FA8426ED1D7
:1025F00053480078AA28FAD151484078AF28F6D13C
:102600004F4840794E49097940EA01204E490880F7
:102610004B48C0794A49897940EA01204A494880B3
:102620004748407A4649097A40EA0120464988806D
:102630004348C07A4249897A40EA01204249C88029
:102640003F48407B3E49097B40EA01203E490881E2
:102650003B48C07B3A49897B40EA01203A4948819E
:102660003748407C3649097C40EA01203649888158
:102670003348C07C3249897C40EA01203249C88114
:102680002F48407D2E49097D40EA01202E490882CD
:102690002B48C07D2A49897D40EA01202A49488289
:1026A0002A4E2B4F498840F2DC52501AFDF73FFF6B
:1026B00080463146FDF7B2FD264908602249098867
:1026C00040F2DC52501AFDF732FF01E026E024E030
:1026D00080463146FDF7A2FD1F4908601A48C088B0
:1026E00040F21C71884208DD1C4908684FF07D519A
:1026F000FDF73CFD194908600DE01348C08840F221
:102700009C41884207DA154908684FF07D51FDF772
:102710007FFD1249086001F0C7FA0FE00948008800
:10272000401C0849088008460088B0F5487F05DD50
:10273000002008800A490870FFF794FDBDE8F08189
:10274000270300209A0000200C0100200AD7233D17
:10275000A69BC43ABC010020F00100202402002006
:102760002600002010B54FF40060124908600522D1
:1027700011492A20FFF73CFD01212120FFF75AFDD6
:1027800001212220FFF756FD2D212520FFF752FDC4
:1027900020213120FFF74EFD0F212620FFF74AFDB3
:1027A0000F212020FFF746FD4FF400600149091F6B
:1027B000086010BD140801401D3E000821B10288C8
:1027C00042F04002028004E002884FF6BF731A40D4
:1027D0000280704700B587B001218803FFF766FECD
:1027E00001210920FFF772FE4FF480511C48FEF7CB
:1027F00080FA4FF46040ADF8040003208DF8060025
:1028000018208DF8070001A91548FEF7E7F9002107
:102810001448FFF7D3FF0020ADF808004FF4827092
:10282000ADF80A000020ADF80C00ADF80E00ADF8D0
:1028300010004FF40070ADF812001020ADF8140035
:102840000020ADF816000720ADF8180002A90548D1
:1028500000F018F801210348FFF7B0FF07B000BDF2
:10286000000C0140003800400246002013890B4054
:102870000BB1012000E000207047014688897047B5
:102880008181704710B50022028802F441520B8802
:102890004C8823438C882343CC8823430C892343CF
:1028A0004C8923438C892343CC8923431A430280D8
:1028B000838B4FF2FF74234083830B8A038210BD06
:1028C00010B5044600BF02210A48FFF7CDFF0028DB
:1028D000F9D021460748FFF7D3FF00BF0121054883
:1028E000FFF7C2FF0028F9D00248FFF7C6FFC0B2C9
:1028F00010BD000000380040704710B500F002F82D
:1029000010BD00000CB50020019000903348006815
:1029100040F480303149086000BF3048006800F45E
:10292000003000900198401C0190009818B901985F
:10293000B0F5A06FF1D12948006800F4003010B163
:102940000120009001E0002000900098012843D170
:102950002348006840F010002149086008460068DC
:1029600020F0030008600846006840F0020008609C
:102970001A48406819494860084640684860084657
:10298000406840F4806048600846406820F47C104D
:1029900048600846406840F4E8104860084600680F
:1029A00040F08070086000BF0C48006800F00070C4
:1029B0000028F9D00948406820F003000749486022
:1029C0000846406840F00200486000BF0348406885
:1029D00000F00C000828F9D10CBD000000100240E6
:1029E0000020024002480068401C0149086070470E
:1029F0001C00002010B51348006840F00100114988
:102A0000086008464068104908400E49486008467A
:102A100000680E4908400B4908600846006820F429
:102A2000802008600846406820F4FE0048604FF4AB
:102A30001F008860FFF761FF4FF0006004490860E5
:102A400010BD0000001002400000FFF8FFFFF6FE7E
:102A500008ED00E000B589B001210420FFF736FD44
:102A60000F20ADF8040003208DF8060018208DF823
:102A7000070001A92848FEF7B1F801210846FFF731
:102A800015FD40F2E730ADF81C000820ADF8180045
:102A90000020ADF81E00ADF81A0006A94FF08040E6
:102AA00000F046FA6020ADF808000120ADF80A00F9
:102AB0000020ADF80E00ADF8100002A94FF08040E4
:102AC00000F0DAF80821C80600F022F902A94FF058
:102AD000804000F027F90821C80600F075F902A926
:102AE0004FF0804000F07EF90821C80600F0CAF9D6
:102AF00002A94FF0804000F0CFF90821C80600F08D
:102B000009FA0121880700F081F80121880700F007
:102B10008CF809B000BD0000000801401FB501217C
:102B20000220FFF7C3FC1D208DF8000001208DF866
:102B3000010003208DF8020001208DF80300684693
:102B4000FFF7B6FB40F22B10ADF8080040F2CF20A3
:102B5000ADF804000020ADF80A00ADF8060001A9A8
:102B6000064800F0E5F901221146044800F07AF821
:102B70000121024800F059F81FBD00000004004088
:102B800010B50121194800F05CF870B318480068CE
:102B9000401C1749086017480078401C1549087008
:102BA00015480078401C1449087012480078012824
:102BB0000BD100200F490870FFF7F6F8FFF700FD72
:102BC0000E48FDF76BFFFEF7A7FF0B4800780228C1
:102BD00007D1002008490870094A0A490A48FEF747
:102BE0008BF80121014800F01DF810BD00040040E1
:102BF0001C0000201800002019000020A69B443B68
:102C0000B020CD3B00010020F400002021B102885B
:102C100042F08002028004E002884FF67F731A407F
:102C200002807047CA430282704721B1028842F095
:102C30000102028004E002884FF6FE731A4002800F
:102C4000704730B50246002000230024158A05EAAB
:102C50000103958905EA010413B10CB1012000E0DC
:102C6000002030BD1AB183890B43838102E0838940
:102C70008B4383817047000070B50024002200233D
:102C8000058C4FF6FE7635400584028C8388048BD4
:102C90004FF68F752C40B51E2C400D882C43751EA9
:102CA0002A400D892A434D882A43144DA8420BD04F
:102CB000134DA84208D0134DA84205D0124DA8428A
:102CC00002D0124DA84213D14FF6F7752A404D8914
:102CD0002A434FF6FB752A408D882A434FF6FF653D
:102CE0002B404FF6FF552B408D892B43CD892B432D
:102CF00083800483CD888586028470BD002C0140CA
:102D000000340140004001400044014000480140BF
:102D10000A460021018B4FF6F773194011430183D6
:102D20007047000070B5002400220023058C4FF688
:102D3000EF7635400584028C8388048B48F6FF7556
:102D40002C404FF6FF452C400D884FF6FF7606EAE3
:102D500005252C434FF6DF752A400D8906EA051537
:102D60002A434D8806EA05152A43154DA84202D08C
:102D7000144DA8421DD14FF67F752A404D894FF65C
:102D8000FF7606EA05152A434FF6BF752A408D885F
:102D900006EA05152A434FF6FF352B404FF2FF7523
:102DA0002B408D8906EA85052B43CD8906EA8505EA
:102DB0002B4383800483CD880587028470BD000087
:102DC000002C0140003401400A460021018B4FF2E3
:102DD000FF7319404FF6FF7303EA0223194301837F
:102DE0007047000070B5002400220023058C4FF6C8
:102DF000FF6635400584028C8388848B4FF68F757F
:102E00002C404FF6FC752C400D882C434FF6FF5597
:102E10002A400D894FF6FF7606EA05252A434D889C
:102E200006EA05252A43154DA84202D0144DA842B2
:102E30001DD14FF2FF752A404D894FF6FF7606EA05
:102E400005252A434FF6FF352A408D8806EA0525D9
:102E50002A434EF6FF752B404DF6FF752B408D89AA
:102E600006EA05152B43CD8906EA05152B43838019
:102E70008483CD888587028470BD0000002C0140CA
:102E8000003401400A460021818B4FF6F773194048
:102E9000114381837047000070B500220023002495
:102EA000058C4EF6FF7635400584038C8488828B32
:102EB00048F6FF752A404FF6FF452A400D884FF629
:102EC000FF7606EA05252A434DF6FF752B400D894E
:102ED00006EA05352B434D8806EA05352B430B4D95
:102EE000A84202D00A4DA84208D14BF6FF752C40EB
:102EF0008D894FF6FF7606EA85152C438480828300
:102F0000CD88A0F84050038470BD0000002C014023
:102F1000003401400A460021818B4FF2FF731940B3
:102F20004FF6FF7303EA02231943818370470000C1
:102F3000002202881D4B98420ED01D4B98420BD0A8
:102F4000B0F1804F08D01B4B984205D01A4B9842E5
:102F500002D01A4B984204D14FF68F731A404B8817
:102F60001A43174B984207D0164B984204D04FF69D
:102F7000FF431A40CB881A4302808B8883850B88D5
:102F800003850A4B98420BD0094B984208D00E4B50
:102F9000984205D00D4B984202D00D4B984201D17A
:102FA0000B7A03860123838270470000002C0140C6
:102FB000003401400004004000080040000C0040C4
:102FC0000010004000140040004001400044014057
:102FD0000048014000B587B001212448FFF766FA98
:102FE00027208DF8040000208DF805008DF80600DC
:102FF00001208DF8070001A8FFF75AF94FF480600F
:10300000ADF8180018208DF81B0003208DF81A0069
:1030100006A91748FDF7E2FD4FF40060ADF818006F
:1030200004208DF81B0006A91148FDF7D7FD4FF4C9
:10303000E13002900020ADF80C00ADF80E00ADF8C4
:103040001000ADF814000C20ADF8120002A90948D8
:1030500000F0EAF8012240F22551064800F0BFF8DE
:103060000121044800F0A2F807B000BD08000400E8
:10307000000C01400048004070B53C4800883B48C7
:10308000008840F22551084000286ED03748001DC6
:10309000008840B23649374A12788854354800785B
:1030A00010B101281AD10AE0314890F900005630D9
:1030B00020B930480078401C2E49087054E02C4854
:1030C00090F90100513028B92A480078401C29495C
:1030D000087002E000202749087045E0244890F974
:1030E0000300001D23490978884205DD2148007846
:1030F000401C2049087037E00025002405E01C48EA
:10310000005D284445B2601CC4B21A48007884426D
:10311000F5DB1748174909784056A8421CD11448D6
:10312000807815490871084645710020887100248F
:1031300009E0114880791049095D084440B20E4900
:103140008871601CC4B2062CF3DB07210A4800F02A
:1031500015F80748FDF722FC0020064908700449CD
:103160000870487000BF00BF00BF70BD004800403D
:103170000E030020920000209300002070B5054649
:103180000E4600240DE000BF0748008800F08000D4
:103190000028F9D0285781B2034800F0B1F8601C2C
:1031A000C4B2B442EFDB70BD0048004021B1828957
:1031B00042F40052828104E082894DF6FF731A4086
:1031C0008281704702460020B1F5007F00D100BF28
:1031D00013880B400BB1012000E000207047F0B5D0
:1031E0000346002400260025002040F66A17B94255
:1031F00000D100BF1846C1F3421401F01F06012799
:1032000007FA06F5012C01D10C3004E0022C01D1A3
:10321000103000E014301AB107682F43076002E055
:103220000768AF430760F0BD2DE9F04786B005465B
:103230000E460024A24600BFA1460027B08900B177
:1032400000BF2F462C8A4CF6FF700440F0880443E0
:103250002C82AC894EF6F3100440B08831890843C3
:10326000718908430443AC81AC8A4FF6FF400440A7
:10327000B0890443AC8201A8FFF738F91F488742A0
:1032800002D1DDF810A001E0DDF80CA0A88900F45F
:10329000004040B10AEBCA0000EB0A103168490057
:1032A000B0FBF1F807E00AEBCA0000EB0A10316846
:1032B0008900B0FBF1F86420B8FBF0F004012009AC
:1032C000642101FB1089A88900F4004040B132203C
:1032D00000EBC900B0FBF1F000F00700044308E088
:1032E000322000EB09106421B0FBF1F000F00F0078
:1032F00004432C8106B0BDE8F0870000003801408F
:10330000C1F308028280704700BFFEE7014A02490C
:1033100000F096B8BD3A0008EC000020490050EAE1
:10332000C12018BF04204A0D18BF40F0010040F230
:10333000FF72B2EB515F08BF40F00200012808BFE6
:10334000052070472DE9F0414F1E00EBC7010446F0
:10335000D1E9000115461E4637F006020DD02A4677
:103360003346FDF772F87F1E04EBC703D3E9002351
:10337000FCF7C4FF37F00602F1D1022F25D0042F4D
:1033800013D0062F18BFBDE8F0812A463346FDF75B
:103390005CF8D4E90A23FCF7B1FF2A463346FDF76F
:1033A00054F8D4E90823FCF7A9FF2A463346FDF771
:1033B0004CF8D4E90623FCF7A1FF2A463346FDF773
:1033C00044F8D4E90423FCF799FF2A463346FDF775
:1033D0003CF8D4E90223FCF791FF2A463346FDF777
:1033E00034F8D4E90023BDE8F041FCF787BF01229F
:1033F000FDF726BAFCF782BF00221346104611469D
:10340000FDF7AFB9024A00201107FDF719BA000015
:1034100001FDFFFF02E008C8121F08C1002AFAD10F
:1034200070477047002001E001C1121F002AFBD144
:10343000704700000149086070470000F00000205C
:103440002DE9F04116460F460446002503E03946B3
:10345000B047641C6D1C20780028F8D12846BDE8D0
:10346000F08100002DE9F04D8D4F21F0004A86B02B
:1034700005460C46BA452ADBAAEB070028430AD0CA
:103480008848824501DC1AD1CDB106B02846BDE896
:10349000F04DFFF7ACBF844A844B2846FCF7D5FFBC
:1034A00007460E46824A834B28462146FCF7CDFF4D
:1034B00006B03A463346BDE8F04DFCF71FBF012089
:1034C000FFF7B8FF06B0BDE8F04DFFF795BF7A48AB
:1034D000824542DABAF1795F0BDA2846FFF71EFF20
:1034E000042808BFFFF78EFF284606B02146BDE836
:1034F000F08D2A460B461046FCF7A7FF834602468E
:103500006E480E460B4606217844FFF71BFF5A46CD
:103510003346FCF79AFF804669488A465A46334646
:1035200004217844FFF70EFF5A463346FCF78DFF1F
:1035300000223B46FCF7E2FE02460B46404651465F
:10354000FDF70FF92A462346FCF77FFF06B02A460F
:103550002346BDE8F04DFCF7D1BE284624F00041DB
:1035600000223D463B46FCF76DFF4FF0FF32FDF772
:1035700067F90646024653480F460B460621784433
:10358000FFF7E0FE32463B46FCF75FFFCDE9000166
:103590004D4832463B4604217844FFF7D3FE32467D
:1035A0003B46FCF752FF00222B46FCF7A7FE834662
:1035B00002913046394600F009FC804643480D46EA
:1035C000504517DCDDE900015A46029BFDF7C9F8BA
:1035D00042462B46FCF739FF42462B46FCF78EFE4F
:1035E0000122FDF72DF9304A304BFCF728FF304A15
:1035F000304B4CE04FF0000A52460B464046FCF779
:103600007DFECDE9031052462B4610461946FCF7C5
:103610001CFF32463B46FCF715FFDDE90332FDF7A0
:10362000A0F806460F46DDE900015A46029BFDF769
:1036300098F883460091012230463946FDF700F99B
:10364000194A1A4BFCF7FEFE06460F460122404679
:103650002946FDF7F5F85A46009BFCF7F6FE324680
:103660003B46FCF7ECFE06460F4601225046294633
:10367000FDF7E6F80E4DDFF858802A464346FCF782
:10368000E1FE32463B46FCF7DDFE2A464346FCF7A8
:10369000D9FE002CD8BF81F0004106B0BDE8F08D06
:1036A0000000F03F0000F07F075C143326A6913C39
:1036B000182D4454FB21F93F0000E03F340900007D
:1036C0004A090000BE080000D40800003333EF3F71
:1036D000FB21E93F2DE9F84F04460D4621F000405B
:1036E00000917349814211DC7249884201DC06D1A4
:1036F0002CB120462946BDE8F84FFFF778BE6E484A
:10370000002DCCBF6D496E49BDE8F88F6D498142EF
:1037100011DD6D498142D8BF4FF0FF366DDD204687
:103720002946FFF7FBFD042808BFFFF76BFE204684
:103730002946BDE8F88F6549654F25F0004581426F
:1037400033DD6449814219DD002632464FF0804363
:1037500020462946FCF7D2FD80468A4601222046B3
:103760002946FDF76DF800223B46FCF768FE42460D
:103770005346FCF7F6FF04460D463EE001260022C4
:10378000BA463B4620462946FCF7B8FD80460F4620
:103790000022534620462946FCF751FE42463B464E
:1037A000FCF7DFFF04460D4627E04B4981421BDD55
:1037B000DFF828A102260022534620462946FCF7BE
:1037C00044FE00223B46FCF799FD80460F4600224E
:1037D000534620462946FCF732FE42463B46FCF75C
:1037E000C0FF04460D4608E0032622462B46002073
:1037F0003B49FCF7B6FF04460D4622462B461046D1
:103800001946FCF722FE8B46824602460B46FCF721
:103810001CFE07460246334888460B46062178447C
:10382000FFF790FD52465B46FCF70FFE82462E489E
:103830008B463A46434605217844FFF783FD3A46D6
:103840004346FCF702FE02460B46002E5046594600
:103850000CDAFCF753FD22462B46FCF7F6FD01B0CF
:1038600022462B46BDE8F04FFCF7ECBDFCF746FDC9
:1038700022462B46FCF7E9FD1C4A7A4402EBC603BC
:10388000D3E90023FCF7DBFD22462B46FCF7D7FDEE
:10389000174A7A4402EBC603D3E90023FCF7D2FDB2
:1038A000009A002AB8BF81F00041BDE8F88F0000FF
:1038B000000010440000F07F182D4454FB21F93F14
:1038C000FB21F9BF0000DC3F0000203E0000F33F79
:1038D0000000F03F0000E63F008003400000F83F9A
:1038E0000000F0BFD606000094060000320600007B
:1038F000FA0500002DE9F04D9446CCF1000423F0C8
:1039000000464CEA0404524F46EAD4749A4688466C
:1039100021F00042BC4206D8454240EA050442EA92
:10392000D474BC4204D9BDE8F04D6246FFF762BDD5
:10393000AAF14055A5F17F6555EA0C040BD002248D
:1039400004EAAA74434DDFF810E144EAD87452EA5D
:10395000000B04D00CE0BDE8F04DFFF7BBBE002C1F
:1039600014BF012CBDE8F08D022C30D0032C32D0D6
:1039700056EA0C0B0AD0BE4220D1BA4209D126F039
:10398000804622F080423346114617E000291ADBB8
:1039900025E0DFF8C8B0FB44002C04BFDBE90001E0
:1039A000BDE8F08D012C02BFDBE9000181F0004190
:1039B000BDE8F08D022C0AD0032C0CD0BA4212D1F3
:1039C000B8F1000F0BDA23482549BDE8F08D2846F1
:1039D0002449BDE8F08D28467146BDE8F08D1D48AC
:1039E0002149BDE8F08D921B12153C2AC4BF19482D
:1039F0001D490EDCBAF1000FBEBF12F13C0F0020D2
:103A0000014606DB6246FCF7ACFE21F00041FFF701
:103A100061FE002C08BFBDE8F08D012C04BF81F0D1
:103A20000041BDE8F08D114A114B022C07D0FCF784
:103A300006FD2A46BDE8F04D0A4BFCF700BDFCF739
:103A4000FEFC2A46BDE8F04D064BFCF7FBBC00002F
:103A50000000F07F182D4454FB2109C08E050000A2
:103A6000FB21F9BFFB210940FB21F93F075C14331F
:103A700026A6A13C00B585B06846FEF737FD04498F
:103A80000098B0FBF1F00349086005B000BD0000EC
:103A900040420F001400002030B50446FDF7D2FC70
:103AA000054600BFFDF7CEFC401B04EB4401C1EB13
:103AB000C411B0EBC10FF5D330BD000070B50446A2
:103AC0000D46E1B20548FFF71BFC00BF402103484B
:103AD000FFF778FB0128F9D1204670BD004800406F
:103AE0002DE9F04104460D4621692068FCF73EFBB4
:103AF000606061696068FCF739FB064631466068C2
:103B0000FCF7BEFBE0602846A168FCF781FB074696
:103B1000E168FCF783FB0646A168FCF727FBA06081
:103B20004FF07E50E168FCF773FB06466168FCF7D6
:103B300075FB2060BDE8F081FFF79CFF4FF4A060AB
:103B4000FEF7EEFB164800684FF47A72B0FBF2F114
:103B5000B1F1807F00D31DE021F07F40401E4FF087
:103B6000E022506150170F22002807DA13071D0EBC
:103B70000C4B00F00F04241F1D5503E013071C0E0F
:103B8000094B1C5400BF00204FF0E0229061072039
:103B9000106100BFFCF7E0FE01E0FEF7CDFBFCE7A3
:103BA0000000002018ED00E000E400E010B502463F
:103BB00000200EE0002352F82040E36052F820403D
:103BC000A36052F82040A36252F820406360431C77
:103BD000D8B28842EEDB10BD2DE9F05F04460E46F8
:103BE000616A2068FCF714FB054631462846FCF75D
:103BF00015FB8046E168FCF7B9FAE060A168284649
:103C0000FCF706FB80463146FCF73AFB0746A06905
:103C10003946FCF703FB8146E1686069FCF7FEFA70
:103C2000824620692946FCF7F9FA83465146FCF79B
:103C30009DFA80464946FCF799FAA062A560BDE866
:103C4000F09F00004FF080400F4908610F49086164
:103C50004FF081400E49086100200B4948610B4933
:103C600048610B4948610B480749886107498861E9
:103C70004FF07C50064988610748084908610849A7
:103C800008610849086170472001002054010020A4
:103C9000880100200AD7A33D0000E040BC010020BD
:103CA000F00100202402002042488088B0F5966F81
:103CB00007DA4048C088B0F5966F02DAFF203E4927
:103CC00008703D480078042834D006DC012809D06B
:103CD000022811D0032866D122E01F2834D0FF2803
:103CE00061D14FE03348808840F27E41884202DA59
:103CF0000220314908705AE02E488088B0F5E16F03
:103D00000DDD2E480078401C2C49087008460078CC
:103D1000052804DD0020087003202749087046E0CC
:103D20002448808840F27E41884202DA04202249F9
:103D300008703CE00120224908701F201E490870CD
:103D400000202049887032E01A48808840F21541EE
:103D500088420CDA1C4801880088401C1A4A1080EE
:103D6000B1F5FA6F0DDDFF201349087009E0144822
:103D7000007818B9FF201049087002E000201249AD
:103D8000088014E002200F49887000200E49088046
:103D90004FF496700B4908800020094908700120F3
:103DA0000549087003E0FF200349087000BF00BF09
:103DB000704700000C0100209C000020A0000020A3
:103DC000260000203C0000209E0000202DE9F0414C
:103DD00006460F46FCF76EFD041E0D4618BF012077
:103DE000284320F00040C0F17F6000F1E040C00FA8
:103DF0000ED0301C18BF0120384320F00040C0F125
:103E00007F6000F1E040C00F04BF0120FFF712FB0C
:103E100020462946BDE8F081112233445511223352
:103E200044550000DB0F4940E12E654235FA8E3CD7
:103E3000F6FF793D2E9E8B3AD80FC93F0000000057
:103E4000555555555555C53F7D6FEB0312D6D4BF1B
:103E50005544880E55C1C93F3B8F68B52882A4BF21
:103E600088B20175E0EF493F09F7FD0DE13D023FE2
:103E70004B2D8A1C273A03C0C88A599CE52A00406A
:103E800059018D1B6C06E6BF82922EB1C5B8B33FB7
:103E90004FBB610567ACDD3F182D4454FB21E93F62
:103EA0009BF681D20B73EF3F182D4454FB21F93F51
:103EB000E2652F227F2B7A3C075C143326A6813CD7
:103EC000BDCBF07A8807703C075C143326A6913C82
:103ED000C4EB98999999C9BF711623FEC671BCBFEE
:103EE0006D9A74AFF2B0B3BF9AFDDE522DDEADBF56
:103EF0002F6C6A2C44B4A2BF0D5555555555D53F6E
:103F0000FF8300922449C23F6E204CC5CD45B73F88
:103F1000513DD0A0660DB13FEB0D76244B7BA93F00
:103F200011DA22E33AAD903F0000000000000000EB
:103F3000503F000800000020F40000001434000886
:103F400044400008F4000020640600002434000807
:103F500000A24A0400000000000000000102030467
:103F60000607080900000000000000000000000033
:103F70000000000000000000000000000102030437
:103F80000102030406070809020406082C010200C6
:103F900000000000F40000200AD7A33C000000004D
:103FA00000000000000000006F12833A0C020B3F7B
:103FB0000AD7A33C00000000000000000000000041
:103FC0006F12833A0C020B3F0AD7A33C000000009B
:103FD00000000000000000006F12833A0C020B3F4B
:103FE000000000AAAAEF020000000000010000008B
:103FF0000000000020010020540100208801002062
:10400000F0010020BC010020240200205802002002
:104010008C020020000000000000000001010000F0
:1040200000000000CDCC4C3F52499D390000803F3C
:104030000000000000000000000000000000000080
:04404000000000007C
:04000005080000ED02
:00000001FF
